:100000000C9497020C94C8020C94C8020C94C80279
:100010000C94C8020C94C8020C94C8020C94C80238
:100020000C94C8020C94C8020C94C8020C94C80228
:100030000C94C8020C94C8020C94C8020C94C80218
:100040000C94C8020C94C8020C94C8020C94C80208
:100050000C94C8020C94C8020C94C8020C948B2F08
:100060000C94C8020C94612F0C94372F0C94C80286
:100070000C94C8020C94C8020C94C8020C94C802D8
:100080000C94C8020C94C8020C94C8020C94C802C8
:100090000C94C8020C94C8020C94C8020C94D52F7E
:1000A0000C94C8020C94C8020C94C8020C94C802A8
:1000B0000C94C8020C94C8020C94C8020C94C80298
:1000C0000C94C8020C94C8020C94C8020C940D2F16
:1000D0000C94E32E0C94C8020C94B92E0C948F2E21
:1000E0000C94C8020C94EE1E0C941E060C94361F41
:1000F0000C94F02A0C94B51C0C94321F0C94B31F72
:100100000C94A3040C94141F0C940A060C9458032A
:100110000C940C1F0C94DB0A0C94781F0C9488042C
:100120000C949A2B0C94452B0C946C030C94DA0AC7
:100130000C94B5040C94221F0C94050B0C94DB1E3C
:100140000C9484040C94AA1F0C9428060C949B0510
:100150000C94F9300C94F4020C94D90A0C94A61C5B
:100160000C94A41F0C94BF1F0C94AF050C9499041D
:100170000C947A030C94F51E0C94E7050C943C1F28
:100180000C94581F0C94701F0C943E2C0C941E1F42
:100190000C94C72C0C94E01E0C94C6030C94391FCD
:1001A0000C94F11F0C94F6050C94B9050C947D1F6A
:1001B0000C94E41E0C946D1F0C94A11F0C94AD1BA9
:1001C0000C94C9050C94801F0C94C1050C94140662
:1001D0000C94FA1E0C94BC1F0C942F1F0C947A04E0
:1001E0000C94731F0C94EB0A0C94551F0C94A505EA
:1001F0000C94DE2C0C9449030C94021F0C943411C3
:100200000C94E71E0C949F040C94320B0C94B01FBA
:100210000C94A12A0C9480040C941B1F0C94740B56
:100220000C94091F0C94DD050C94521F0C941304BC
:100230000C948E050C94D21E0C94DC0A0C94BF0412
:100240000C942C1F0C94951F0C94B1040C94761FE5
:100250000C94AD1F0C9496050C946A1F0C94101FFF
:100260000C94AD040C94BA040C94E92B0C94671F05
:100270000C94B91F0C94D3050C9400060C94EE1F3B
:100280000C94A7040C94291F0C94A71F0C94BB0476
:100290000C94B61F0C948C040C9495040C94CD41D2
:1002A0000C94FE0A0C944E1F0C948F040C94161F91
:1002B0000C9403034E414E494E495459494E46CD84
:1002C000CCCC3D0AD7233C17B7D13877CC2B32950D
:1002D00095E6241FB14F0A000020410000C84200EB
:1002E000401C4620BCBE4CCA1B0E5AAEC59D7400B5
:1002F000407A10F35A00A0724E18090010A5D4E8F5
:100300000000E87648170000E40B54020000CA9A87
:100310003B000000E1F505000080969800000040D9
:10032000420F000000A0860100000010270000001E
:1003300000E803000000006400000000000A000064
:100340000000000100000000002C76D888DC674F18
:100350000823DFC1DFAE59E1B1B796E5E3E453C648
:100360003AE651997696E8E6C28426EB898C9B6240
:10037000ED407C6FFCEFBC9C9F40F2BAA56FA5F4EA
:1003800090055A2AF75C936B6CF9676DC11BFCE012
:10039000E40D47FEF520E6B500D0ED902E03009465
:1003A0003577050080841E080000204E0A000000FA
:1003B000C80C333333330F986E12831141EF8D2104
:1003C00014893BE65516CFFEE6DB18D1844B381B6B
:1003D000F77C1D901DA4BBE424203284725E228130
:1003E00000C9F124ECA1E53D27005EBCE2613FDDE0
:1003F00083C29C7E20A3FD1F41009D23BE46DB657A
:10040000F88C11AF32CA57E974000021002400278C
:10041000002A002D00300033000101000004010714
:10042000010A0100002200250028002B002E0031C7
:1004300000340002010000050108010B0100000A60
:100440000B02090C0D0E0807030401000000000058
:10045000000000000000000000000000000000009C
:100460000000000000000000001211100000000059
:10047000000000000000000000000000000000007C
:10048000000000000020002300260029002C002F7F
:100490000032000001000003010601090105050505
:1004A00005070508080808020202020A0A080804EB
:1004B0000404040101010101010101030303030319
:1004C000030303040707070C0C0C0C0C0C0C0C02A8
:1004D00002020206060606060606060B0B0B0B0BAF
:1004E0000B0B0B01021020200808102040102040A8
:1004F00080020102010804020101020408102040E8
:100500008080402010080402018004020180402005
:10051000100804020108040201010204081020402E
:1005200080010204081020408000F930CD411124E0
:100530001FBECFEFD1E2DEBFCDBF00E00CBF17E0A2
:10054000A0E0B2E0E8E3FCE900E00BBF02C00790E6
:100550000D92A635B107D9F72DE0A6E5B7E001C0A9
:100560001D92AD3CB207E1F712E0C6E9D2E000E02F
:1005700006C021970109802FFE010E94114AC5394A
:10058000D10780E00807A9F70E9426320C940A4E92
:100590000C940000FC01A089B18982E08C93A089B1
:1005A000B1891C92A485B5851C92A685B78580E18A
:1005B0008C93108EA489B58986E08C93A289B38927
:1005C0008C9180618C93A289B3898C9188608C9383
:1005D000A289B3898C9180688C930288F389E02D7D
:1005E00080818F7D808308950895DB0114964D915D
:1005F0005C9115976D917C91DC01ED91FC910280ED
:10060000F381E02D1994AF92BF92CF92DF92EF92D7
:10061000FF920F931F93CF93DF936C017B018B01AC
:10062000040F151FEB015E01AE18BF08C017D107FC
:1006300059F06991D601ED91FC910190F081E02D86
:10064000C6011995892B79F7C501DF91CF911F91CB
:100650000F91FF90EF90DF90CF90BF90AF900895F3
:10066000FC01A089B1898C91A689B78982FD0FC050
:100670009C91818D8F5F8F73228D821749F0A18DA0
:10068000AE0FBF2FB11D5D969C93818F08958C9105
:100690000895FC01538D448D252F30E0842F90E088
:1006A000821B930B541710F0CF960895019708956D
:1006B000FC01918D828D981761F0A28DAE0FBF2F36
:1006C000B11D5D968C91928D9F5F9F73928F90E08C
:1006D00008958FEF9FEF0895FC01918D828D9817FB
:1006E00031F0828DE80FF11D858D90E008958FEF38
:1006F0009FEF0895FC01918D228D892F90E0805C01
:100700009F4F821B91098F739927089589E89BE079
:100710000E947A0321E0892B09F420E0822F0895BA
:1007200086E29CE00E947A0321E0892B09F420E014
:10073000822F089583EC9CE00E947A0321E0892BAC
:1007400009F420E0822F0895FC01A48DA80FB92F91
:10075000B11DA35ABF4F2C91848D90E001968F73E9
:100760009927848FA689B7892C93A089B1898C9108
:10077000837080648C93938D848D981306C0028857
:10078000F389E02D80818F7D80830895EF92FF9221
:100790000F931F93CF93DF93EC0181E0888F9B8DA4
:1007A0008C8D98131AC0E889F989808185FF15C05E
:1007B0009FB7F894EE89FF896083E889F989808181
:1007C0008370806480839FBF81E090E0DF91CF9150
:1007D0001F910F91FF90EF900895F62E0B8D10E072
:1007E0000F5F1F4F0F731127E02E8C8D8E110CC0E1
:1007F0000FB607FCFACFE889F989808185FFF5CF2C
:10080000CE010E94A403F1CFEB8DEC0FFD2FF11D63
:10081000E35AFF4FF0829FB7F8940B8FEA89FB8968
:1008200080818062CFCFCF93DF93EC01888D8823C6
:10083000B9F0AA89BB89E889F9898C9185FD03C043
:10084000808186FD0DC00FB607FCF7CF8C9185FF28
:10085000F2CF808185FFEDCFCE010E94A403E9CFC6
:10086000DF91CF91089580E090E0892B29F00E94DC
:100870009A0381110E94000080E090E0892B49F0EA
:1008800080E090E0892B29F00E94000081110E94F5
:10089000000080E090E0892B29F00E9490038111F4
:1008A0000E94000080E090E0892B29F00E948603DE
:1008B00081110C94000008958150823108F05AC0D3
:1008C000E82FF0E08827E859FB4F8F4F0C94114A2E
:1008D00088048C047A0480048404BA048F04950488
:1008E00099049F04A304A704AD04B104BA04B50499
:1008F000BB04BF04809180008F77809380000895AF
:10090000809180008F7DF9CF80918000877FF5CF27
:1009100084B58F7784BD089584B58F7DFBCF80919A
:10092000B0008F778093B00008958091B0008F7DE4
:10093000F9CF809190008F778093900008958091F7
:1009400090008F7DF9CF80919000877FF5CF8091C7
:10095000A0008F778093A00008958091A0008F7DE4
:10096000F9CF8091A000877FF5CF809120018F770C
:10097000809320010895809120018F7DF9CF80918F
:100980002001877FF5CFCF93DF93282F30E0F90147
:10099000E35CFB4F8491F901ED51FB4FD491F901D8
:1009A000E356FB4FC491CC23A1F081110E945C045B
:1009B000EC2FF0E0EE0FFF1FED57FB4FA591B49128
:1009C000EC91ED2381E090E009F480E0DF91CF919C
:1009D000089580E090E0FACF1F93CF93DF93282F04
:1009E00030E0F901E35CFB4F8491F901ED51FB4FDD
:1009F000D491F901E356FB4FC491CC23A9F0162FF3
:100A000081110E945C04EC2FF0E0EE0FFF1FED5D02
:100A1000FB4FA591B4918FB7F894EC91111108C0D8
:100A2000D095DE23DC938FBFDF91CF911F91089586
:100A3000DE2BF8CFCF93DF9390E0FC01ED51FB4F1D
:100A4000249183569B4FFC0184918823C9F090E048
:100A5000880F991FFC01E75FFB4FA591B491FC0142
:100A6000ED5DFB4FC591D49161110DC09FB7F89416
:100A70008C91209582238C938881282328839FBF83
:100A8000DF91CF910895623051F49FB7F8943C9173
:100A9000822F809583238C93E8812E2BEFCF8FB705
:100AA000F894EC912E2B2C938FBFEACF1F93CF930A
:100AB000DF93182FEB0161E00E941A05209739F4AB
:100AC00060E0812FDF91CF911F910C94EC04CF3F18
:100AD000D10511F461E0F5CFE12FF0E0E35CFB4FCD
:100AE000E491E150E23108F0B3C0F0E08827E45827
:100AF000FA4F8F4F0C94114A8E0596059B05A5055C
:100B0000AF052806B905C105C905D305DD05E7050B
:100B1000F605000628060A0614061E0684B5806837
:100B200084BDC7BDDF91CF911F91089584B58062C8
:100B300084BDC8BDF7CF809180008068809380001D
:100B4000D0938900C0938800EDCF809180008062AF
:100B500080938000D0938B00C0938A00E3CF809174
:100B60008000886080938000D0938D00C0938C00BB
:100B7000D9CF8091B00080688093B000C093B3005B
:100B8000D1CF8091B00080628093B000C093B40058
:100B9000C9CF80919000806880939000D093990095
:100BA000C0939800BFCF80919000806280939000A6
:100BB000D0939B00C0939A00B5CF8091900088603D
:100BC00080939000D0939D00C0939C00ABCF809108
:100BD000A00080688093A0008091A0008F7B80930C
:100BE000A000D093A900C093A8009CCF8091A00042
:100BF00080628093A000D093AB00C093AA0092CFF4
:100C00008091A00088608093A000D093AD00C09335
:100C1000AC0088CF80912001806880932001D09320
:100C20002901C09328017ECF8091200180628093AA
:100C30002001D0932B01C0932A0174CF8091200111
:100C4000886080932001D0932D01C0932C016ACF3E
:100C5000C038D1050CF03ECF33CF863308F0865331
:100C600020917B00982F9870277F922B90937B0088
:100C70002091390290E4299F900111248770822BE2
:100C800080937C0080917A00806480937A008091C8
:100C90007A0086FDFCCF80917800909179000895CC
:100CA0003FB7F8948091FC079091FD07A091FE0753
:100CB000B091FF0726B5A89B05C02F3F19F00196FC
:100CC000A11DB11D3FBFBA2FA92F982F8827BC01A6
:100CD000CD01620F711D811D911D42E0660F771FCE
:100CE000881F991F4A95D1F708958F929F92AF92CE
:100CF000BF92CF92DF92EF92FF926B017C010E9434
:100D000050064B015C01C114D104E104F104B9F0B7
:100D10000E945006681979098A099B09683E734048
:100D20008105910580F321E0C21AD108E108F1089C
:100D300088EE880E83E0981EA11CB11CE4CFFF90C2
:100D4000EF90DF90CF90BF90AF909F908F900895DD
:100D50002FB7F8946091F8077091F9078091FA071E
:100D60009091FB072FBF08950F931F93CF93DF93AD
:100D7000EC010E94A806688779878A879B87CE0145
:100D80000E94580397FF15C00E94A8060885198580
:100D90002A853B85601B710B820B930B0C811D8197
:100DA0002E813F81601771078207930740F38FEF11
:100DB0009FEFDF91CF911F910F910895CF92DF9216
:100DC000EF92FF920F931F93CF93DF937C016B0100
:100DD000EA01DC01ED91FC9161E080810E94EC046C
:100DE00001E811E0C09EC001C19E900DD09E900D03
:100DF0001124880F991F880F991F05970197F1F704
:100E0000D701ED91FC9160E080810E94EC04C09FCD
:100E1000C001C19F900DD09F900D1124880F991F84
:100E2000880F991F05970197F1F7DF91CF911F91D7
:100E30000F91FF90EF90DF90CF900895DC0180E05C
:100E4000615090F09D919827E92FEF70F0E0E75105
:100E5000FC4F2491E92FE295EF70F0E0E750FC4F52
:100E6000E491822F8E27ECCF0895DC012C9111960E
:100E7000ED91FC91F8948181822B81839281322FB4
:100E800030959323928387E090E00197F1F7818179
:100E90008323818383E290E00197F1F79081789436
:100EA000EFECF0E03197F1F7922381E009F480E074
:100EB0000895FC0190810180F281E02D292F209579
:100EC00060FF14C0F8948281822382838181892B00
:100ED0008183A3E2B0E01197F1F78281982B92838E
:100EE000789487ED90E00197F1F70895F894828166
:100EF000822382838181892B8183AFEFB0E01197B8
:100F0000F1F78281982B928378948FE090E0EBCF79
:100F1000DF92EF92FF920F931F93CF93DF93EC0139
:100F2000D62EE42E08E010E0FF24F39461E08D2D2E
:100F30008F2109F460E0CE010E945907FF0C015097
:100F40001109A1F7E11010C0F894E981FA819181AB
:100F50008881809589238183E981FA8192818881C2
:100F60008095892382837894DF91CF911F910F918F
:100F7000FF90EF90DF900895EF92FF920F931F93F1
:100F8000CF93DF938C017B0140E065E50E948807E9
:100F9000E70188E0E80EF11C699140E0C8010E9479
:100FA0008807CE15DF05C1F7DF91CF911F910F9113
:100FB000FF90EF900895FC0190810180F281E02D77
:100FC000F8948181292F20958223818378943DE7AD
:100FD00043E050E0315029F1DA011197F1F78081B7
:100FE0008923C1F3F8948281822382838181892BB2
:100FF00081837894ABE7B7E01197F1F7F89481819A
:1010000082238183A3E1B1E01197F1F780819823D6
:1010100081E009F080E07894E3E6F6E03197F1F7BB
:10102000089580E008956F927F928F929F92AF9281
:10103000BF92CF92DF92EF92FF920F931F93CF93C5
:10104000DF938C01EB018091AB0D9091AC0D0E9470
:10105000DB07882309F43FC0B8018091AB0D909164
:10106000AC0D0E94BC0740E06EEB8091AB0D9091FF
:10107000AC0D0E9488077E016E0189E0C80ED11C6C
:101080008E01A090AB0DB090AC0D88E0882E912C15
:10109000712C66246394C5010E943507811176285E
:1010A000660CE1E08E1A9108B1F7F80171928F0198
:1010B000CE16DF0631F78091AB0D9091AC0D0E94FA
:1010C000DB07813041F4F70181917F01811105C077
:1010D000E017F107C1F790E008C068E0CE010E9478
:1010E0001E0791E028852813F6CF892FDF91CF9135
:1010F0001F910F91FF90EF90DF90CF90BF90AF9036
:101100009F908F907F906F900895CF93DF9300D042
:1011100000D000D0CDB7DEB7BE016F5F7F4F0E9419
:101120001308882331F08D818F33A9F020F48F319B
:10113000A1F080E007C08F3521F08F37D1F78CE028
:1011400001C08BE029960FB6F894DEBF0FBECDBF6D
:10115000DF91CF9108958AE0F5CF89E0F3CFCF9367
:10116000DF9300D000D000D0CDB7DEB7BE016F5FF7
:101170007F4F81E39BE00E941308811105C060E06E
:1011800070E08EEF92EC3EC06A8170E0762F6627A9
:10119000770F770F770F298148E0249F9001112462
:1011A000262B372B8091310B8031E1F46885662343
:1011B000C9F070E08F81AB01481B5109CA019695B7
:1011C000982F8827979587950E94FD49CB01809796
:1011D000B90153E0660F771F5A95E1F760789C01DB
:1011E000260F371F213854EE35074CF2B901330F63
:1011F000880B990B0E94524720E030E040E05CE30E
:101200000E94B14729960FB6F894DEBF0FBECDBF3E
:10121000DF91CF910895CF92DF92EF92FF92CF931B
:101220008091310B803159F181E39BE00E94850868
:10123000C82F882309F46EC08091AB0D9091AC0D3E
:101240000E94DB0761E37BE08091AB0D9091AC0DD8
:101250000E94BC074091A20D64E48091AB0D909177
:10126000AC0D0E9488078091A60D81110AC0C1E0D3
:101270008C2FCF91FF90EF90DF90CF900895CCE02E
:10128000DBCF8091A70D8823E1F08091A20D811121
:1012900018C00E94A8066B017C018091AB0D909153
:1012A000AC0D0E943507813011F30E94A8066C191D
:1012B0007D098E099F096E3E72408105910568F394
:1012C000D6CFC9508EEE92E0C33040F4EC2FF0E060
:1012D000EE0FFF1FE35CFC4F808191816C01990F41
:1012E000EE08FF088091A30D882329F060E080912B
:1012F000A40D0E94EC04C701B6010E947506C091BE
:10130000A30DCC2309F4B3CF61E08091A40D0E941A
:10131000EC04AECFC0E0ACCF2091D207260F33272C
:10132000331F21323105ECF420915F0BFC0190E07A
:1013300080E0243069F082E00895A091D2072191E5
:10134000AC014055584FA40FB52FB11D2C930196F9
:10135000861798F38091D207680F6093D20780E0D8
:10136000089581E0089510925F0B81E080935E0BF9
:101370001092390B61E084E10E94EC0461E085E1A8
:101380000E94EC04E9EBF0E080818E7F8083808115
:101390008D7F808388E48093B80085E48093BC00CF
:1013A0000895CF93DF9391E09093AF078823B9F02E
:1013B000C091B800D091BA008091BC008A7B809324
:1013C000BC0060E084E10E94EC0460E085E10E94E2
:1013D000EC040E94B309D093BA00C093B800DF9127
:1013E000CF910895CF92DF92EF92FF920F931F93C8
:1013F000CF93DF93D091880B81E0D13208F09CC06D
:10140000C091870B0E9450066B017C0180915F0B9D
:1014100081116CC082E080935F0B81E080935E0B52
:101420008FEF80935D0B10925C0BD0935B0BA7E664
:10143000BBE0EBE3FBE080E0D8138DC010923A0BE9
:1014400080913A0BCC0FC82BC0933A0B8091390B8B
:10145000813009F084C01092390B0E9450066B0154
:101460007C0180913A0B8093BB008091610B90913D
:10147000620BA091630BB091640B892B8A2B8B2B91
:10148000A1F00E9450060091610B1091620B209117
:10149000630B3091640B6C197D098E099F09061747
:1014A00017072807390708F442C08091BC0083FD64
:1014B000D8CF85EC8093BC000E9450066B017C0164
:1014C00080915F0B823009F44CC080915D0B8F3F9F
:1014D00009F469C080915D0B803209F466C0809187
:1014E0005D0B803309F463C084E026C08091610BFA
:1014F0009091620BA091630BB091640B892B8A2BA6
:101500008B2B09F483CF0E9450060091610B109140
:10151000620B2091630B3091640B6C197D098E096D
:101520009F09061717072807390708F06FCF809122
:10153000600B0E94D10985E01092660B1092880B17
:101540001092650BDF91CF911F910F91FF90EF905B
:10155000DF90CF9008959D9191938F5F6DCF85EE31
:10156000A9CF8091610B9091620BA091630BB09118
:10157000640B892B8A2B8B2B09F4A2CF0E94500677
:101580000091610B1091620B2091630B3091640B01
:101590006C197D098E099F09061717072807390757
:1015A00008F08ECFC4CF80E0C7CF82E0C5CF83E004
:1015B000C3CF089508950895E091AE078091AD07D7
:1015C000E81730F4F0E0E357F84F808190E0089599
:1015D0008FEF9FEF08959091AE078091AD072FEFA9
:1015E0003FEF981748F4E92FF0E0E357F84F2081D8
:1015F00030E09F5F9093AE07C90108958091AD07D9
:101600009091AE07891B990B0895CF92DF92EF92CC
:10161000FF920F931F93CF93DF937C01CB018A013D
:101620002091650B222389F0EB016B01C40ED51EBE
:10163000CC15DD0569F06991D701ED91FC91019020
:10164000F081E02DC7011995F3CF642F0E948C091A
:10165000C801DF91CF911F910F91FF90EF90DF9024
:10166000CF900895CF93DF931F92CDB7DEB76983F4
:101670002091650B2223F9F02091880B203258F03D
:1016800021E030E0FC013383228390E080E00F9082
:10169000DF91CF9108958091660BE82FF0E0E95932
:1016A000F44F998190838F5F8093660B8093880BB2
:1016B00081E090E0ECCF61E0CE0101960E948C09C0
:1016C000F7CFFC01248131E03093650B2093870B29
:1016D0001092660B1092880B8485682B80E69DE043
:1016E0000E94320B0C94F20990E080E00895609320
:1016F000890770938A0780938B0790938C07645DAA
:101700007E4F8F4F9F4F609385077093860780931E
:1017100087079093880782E090E0909384078093F6
:1017200083070E94A80660937F07709380078093C9
:101730008107909382070895CF92DF92EF92FF92F4
:101740000F931F930E94A8068B019C01C0907F07F6
:10175000D0908007E0908107F09082076091890720
:1017600070918A0780918B0790918C070C191D0945
:101770002E093F09083E134021053105E0F0DC0148
:10178000CB010196A11DB11D8093890790938A0713
:10179000A0938B07B0938C07B701A60148515C4F0B
:1017A0006F4F7F4F40937F0750938007609381076F
:1017B00070938207C7CF1F910F91FF90EF90DF903A
:1017C000CF9008954F925F926F927F928F929F92E7
:1017D000AF92BF92CF92DF92EF92FF920F931F933F
:1017E000CF93DF934B015C01809174079091750753
:1017F000A0917607B091770788159905AA05BB05D2
:1018000009F4C6C08CE3C82ED12CE12CF12CC50103
:10181000A70196010E94B24860937807CA01B901F6
:10182000A70196010E94B24860937907C501B401EF
:1018300020E13EE040E050E00E94B248CA01B90118
:1018400028E130E040E050E00E94B24860937A071F
:10185000C501B40120E831E541E050E00E94B24802
:1018600069017A01CA01B9016C5F7F4F8F4F9F4FA9
:1018700027E030E040E050E00E94B2486F5F6093A4
:101880007B07412C512C320140E004E610E0C0E916
:10189000D1E0242F30E02E54384FF901E370FF27B8
:1018A0003097F9F4C901B8010E94FD49892B31F440
:1018B000C901BE010E94FD49892B99F48EE691E091
:1018C000A0E0B0E0480E591E6A1E7B1ED301C20183
:1018D000AA27BB27C816D906EA06FB0638F04F5FD1
:1018E000D8CF8DE691E0A0E0B0E0ECCF40937E074A
:1018F000C90164E670E00E94FD49EC01C90160E99C
:1019000071E00E94FD49309721F42097D9F40097A7
:10191000C9F04DE651E060E070E0441A550A660AED
:10192000770AC418D508E608F708A1E3B3E020E079
:10193000213069F43097E9F5209711F40097C9F543
:101940004DE106C04EE651E060E070E0E6CF4C911C
:1019500050E070E060E031E0320FC416D506E606D4
:10196000F70640F0C41AD50AE60AF70A1196232FA3
:101970003C30F1F62F5F20937D07C394C0927C0723
:101980008092740790927507A0927607B0927707BD
:10199000DF91CF911F910F91FF90EF90DF90CF904B
:1019A000BF90AF909F908F907F906F905F904F907F
:1019B00008954CE1CDCF0E949C0B0E94E20B8091D8
:1019C000780790E008950E949C0B0E94E20B8091A2
:1019D000790790E008950E949C0B0E94E20B809191
:1019E0007A0790E008951F93CF93DF93182F0E94FA
:1019F0002D06EC01812F0E942D06BE01680F791F74
:101A0000072E000C880B990B0E94524720E030E013
:101A100040E05FE30E94B147DF91CF911F910895AD
:101A200080913802882341F088E080939D0D60E02A
:101A300081E99DE00C94610B88E08093900D60E05B
:101A400084E89DE0F7CFBC0180913802882321F023
:101A500081E99DE00C94F50284E89DE0FBCFAF9214
:101A6000BF92CF92DF92EF92FF921F93CF93DF93BB
:101A7000CDB7DEB7A4970FB6F894DEBF0FBECDBFCB
:101A800090915508992309F452C0182F80913C0277
:101A9000811709F448C082E797E09CA38BA382E2F8
:101AA000E3E7F3E0DE01119601900D928A95E1F7EC
:101AB00081E38E8B8D8B8E8F8D8F81E3111101C011
:101AC00080E3888F81E3111180E388A38FE0E82E03
:101AD000F12C5E0181E2A80EB11CFE0131966F016E
:101AE000F60181916F0142E050E061E070E08133E6
:101AF00021F441E050E062E070E0CE0183960E9464
:101B0000DE06AC14BD0461F741E150E061E070E035
:101B1000CE0183960E94DE06F1E0EF1AF108E9F6A5
:101B200010933C0204C00E94E30C80FFB4CFA49643
:101B30000FB6F894DEBF0FBECDBFDF91CF911F91DE
:101B4000FF90EF90DF90CF90BF90AF900895CF922D
:101B5000DF92EF92FF92CF93DF9310923B021092AD
:101B60003A0280915C07882309F448C020E030E005
:101B700048E452E46091E8027091E9028091EA023F
:101B80009091EB020E94E34820E030E040EA50E40C
:101B90000E9450490E94C2496B0161E08EE30E949D
:101BA000EC046FEF70E088E00E945605D7FE04C099
:101BB000D0923B02C0923A0280913A0290913B024D
:101BC000029734F482E090E090933B0280933A02D3
:101BD00080915B078823E1F060E08FE30E94EC04D2
:101BE00060E080E40E94EC046FEF8AE0DF91CF9127
:101BF000FF90EF90DF90CF900C94EC0460E08EE3C8
:101C00000E94EC0470E060E088E00E945605E0CF9E
:101C100061E08FE30E94EC0461E080E40E94EC0448
:101C200070E060E08AE0DF91CF91FF90EF90DF906D
:101C3000CF900C945605CF930E94DB0C209158074F
:101C4000309159078217930709F442C0C1E0C0934D
:101C50005D070E94DB0C9C01909359078093580705
:101C600065E070E00E94FD49892B11F4C0935E0786
:101C7000C9016AE070E00E94FD49892B19F481E0F6
:101C800080935F07C9016FE070E00E94FD49892BD6
:101C900019F481E080936007C9016EE170E00E9451
:101CA000FD49892B19F481E0809361070E94E30CC0
:101CB00020915607309157078217930749F081E02A
:101CC000809362070E94E30C909357078093560716
:101CD000CF910895CF93DF9385E40E94C304EC0174
:101CE00081E0209709F080E08093C10A84E40E949B
:101CF000C3049C0181E02115310509F080E0809347
:101D0000C00ACD2B19F091E0232B09F490E09093B9
:101D1000BB0A8091C30A882391F083E40E94C30424
:101D200021E0892B09F020E02093560882E40E94EC
:101D3000C30421E0892B09F020E020935408DF91AF
:101D4000CF91089581E08093550810923C020E9443
:101D50002F0D68EE73E080E090E00E94750680E051
:101D60000E942F0D68EE73E080E090E00E947506FF
:101D700081E00E942F0D68EE73E080E090E00E9409
:101D8000750680E00E942F0D1092550808958F92DD
:101D90009F92AF92BF92CF92DF92EF92FF921092FA
:101DA0001408109213081092160810921508109239
:101DB00018081092170810928F0210929002109239
:101DC0009102109292021092930210929402109239
:101DD00095021092960210926C0210926D0210926F
:101DE0006E0210926F0210927002109271021092A5
:101DF0007202109273021092490210924A021092DB
:101E00004B0210924C0210924D0210924E02109210
:101E10004F021092500281EF9FEF9093060B809338
:101E2000050B8091C00A882341F08091F4029091C3
:101E3000F5029093F7028093F6021092E60A109250
:101E40001E088090E8029090E902A090EA02B0900B
:101E5000EB026091F2027091F302072E000C880BE6
:101E6000990B0E9452476B017C01AC019B01C5019B
:101E7000B4010E94F84987FD0DC01092F70210923C
:101E8000F602FF90EF90DF90CF90BF90AF909F90C1
:101E90008F9008958091F4029091F50247972091D8
:101EA000F6023091F702281739073CF080915A0763
:101EB000811103C081E080931E0880911E08882351
:101EC00001F3A7019601C501B4010E944B47181602
:101ED000C4F281E08093E60AA5019401C701B6012E
:101EE0000E94E34820E030E04AE754E40E94B14712
:101EF00020E030E04AE754E40E94E4480E94C949E7
:101F0000683E83E0780710F468EE73E0693B8BE08D
:101F1000780710F068EB7BE070930B0860930A0879
:101F2000B0CFBF92CF92DF92EF92FF920F931F93A9
:101F3000CF93DF93EC01B62EC72E8D85811105C09E
:101F4000CE010E94DB0781110EC01B861D861C86F8
:101F500080E0DF91CF911F910F91FF90EF90DF9084
:101F6000CF90BF90089540E060EFCE010E948807B7
:101F700001E0E12CD12C11E0CE010E943507F82EB2
:101F8000CE010E94350791E0F91218C0813099F511
:101F90001134D8F2DB86D11002C081E08D878B81AD
:101FA000882399F22396EB2DFC2DCF0108962991D9
:101FB0002193E817F907D9F781E0CBCFEE2DF0E0B8
:101FC000F8120FC08B851817A0F4DE01AE0FBF1FEB
:101FD00013968C91802379F4F12C193008F41C8726
:101FE000D12EEC0FFD1F8381902F90958923838341
:101FF0000AC08113F1CFFE01EE0DF11D8381802B0C
:102000008383FF24F3946F2DCE010E9459071F5F35
:10201000000F11F4E39401E087E08E1508F0ACCFD7
:10202000B7CFFF920F931F93CF93DF938C01F62EC0
:10203000E091AB0DF091AC0D1386158614861286D7
:102040001186108617821682158214821382C0E0D0
:10205000B8018091AB0D9091AC0D0E94910FD82FDB
:10206000882329F0FC1629F0CF5FFC1688F7D0E012
:1020700008C067E0C8010E941E07F8019781891314
:10208000F3CF8D2FDF91CF911F910F91FF90089586
:102090000F931F93CF938C01C62F0E94610B6C2F5F
:1020A0006460C8010E94610B6C2F6B7FC8010E94A5
:1020B000610B83EC90E00197F1F7CF911F910F91A5
:1020C00008950F931F93CF93DF938C01D62FC42FC6
:1020D000607F642B0E94481080E1D89FB0011124DA
:1020E0006C2BC801DF91CF911F910F910C94481078
:1020F000CF93DF9300D000D01F921F92CDB7DEB7F1
:1021000028E0EFEFF2E0DE01119601900D922A95A2
:10211000E1F7FC012085241710F44FEF420F50E047
:10212000440F551F21E030E02C0F3D1F420F531F7D
:10213000FA012081620F606840E028960FB6F8949B
:10214000DEBF0FBECDBFDF91CF910C946110462F43
:1021500090913802682F992321F081E99DE00C9439
:10216000781084E89DE0FBCFCF93DF93EC0140E053
:1021700061E00E9461108BE39FE10197F1F789858F
:10218000882339F040E060E0CE01DF91CF910C94DC
:102190007810DF91CF910895FF920F931F93CF9303
:1021A000DF93EC018D8188608D8384E0F82EF886C2
:1021B00062E370E080E090E00E9475066C85CE01DD
:1021C0000E94610B68EE73E080E090E00E9475066B
:1021D00060E3CE010E9448100BE416E4C8010197A9
:1021E000F1F760E3CE010E944810C8010197F1F7B2
:1021F00060E3CE010E94481083E592E00197F1F779
:1022000060E2CE010E9448106D81606240E0CE0124
:102210000E946110FE8240E06CE0CE010E946110DD
:10222000CE010E94B41082E08F8340E066E0CE01D0
:102230000E94611040E062E0CE010E9461108BE3D9
:102240009FE10197F1F7DF91CF911F910F91FF90DF
:10225000089580913802882321F081E99DE00C9453
:10226000B41084E89DE0FBCF41E00E94611081E062
:1022700090E00895EF92FF920F931F93CF93DF9317
:102280008C017A0188E0689FB0011124606440E00D
:10229000C8010E946110E70188E0E80EF11C699115
:1022A000C8010E943411CE15DF05C9F7DF91CF9127
:1022B0001F910F91FF90EF900895682F8091380241
:1022C000882321F081E99DE00C94341184E89DE09D
:1022D000FBCFFB0101900020E9F73197AF01461BCE
:1022E000570B0C9403030F931F93CF93DF93EC01D1
:1022F0000E9469118C0165E973E0CE010E946911A9
:10230000800F911FDF91CF911F910F9108958091C0
:10231000F6029091F7029093C7028093C60268E993
:1023200073E083EC9CE00E94731168EE73E080E040
:1023300090E00E9475060C94000008950F931F937F
:10234000CF93DF93EC010E94F5028C0165E973E005
:10235000CE010E946911800F911FDF91CF911F91D3
:102360000F910895FF920F931F93CF93DF930EEB7E
:1023700012E0D0E0C0E0F801F1908F01CE010E94A0
:102380007248F81621F06F2DCE010E947A482196EE
:10239000CA32D10581F78EEB92E0DF91CF911F9188
:1023A0000F91FF900895CF93DF93CDB7DEB7AA9733
:1023B0000FB6F894DEBF0FBECDBF8AE2E7E0F3E0D0
:1023C000DE01119601900D928A95E1F78AE2FE01F5
:1023D0003196AEEBB2E001900D928A95E1F763EA97
:1023E00073E083EC9CE00E9473110E94B21164EFD1
:1023F00071E080E090E0AA960FB6F894DEBF0FBEC1
:10240000CDBFDF91CF910C9475060F931F93CF939F
:10241000DF930EEB12E0D0E0C0E0CE010E947248E4
:10242000F80181938F012196CA32D105B1F764EF8B
:1024300071E080E090E0DF91CF911F910F910C94BB
:1024400075060F931F93CF93DF938C01EB01FC0173
:10245000808191810097E1F0688179816115710532
:10246000A9F0428153812C813D814217530770F0BE
:102470000E941E4B8C819D81F801958384831D826F
:102480001C82DF91CF911F910F9108950E94974276
:1024900088819981F801918380838A819B819383CC
:1024A00082838C819D8195838483198218821B820B
:1024B0001A82E5CFCF93DF93EC0188819981009751
:1024C00011F00E949742198218821D821C821B8281
:1024D0001A82DF91CF910895FC018081918100974C
:1024E00011F00C94974208950F931F93CF93DF93AD
:1024F000EC0188819981009759F02A813B81261748
:10250000370730F081E0DF91CF911F910F9108954F
:102510008B016F5F7F4F0E94344A009759F0998377
:1025200088831B830A832C813D81232B59F7FC016F
:102530001082E8CF80E0E7CFEF92FF920F931F93D6
:10254000CF93DF936115710541F480E0DF91CF9166
:102550001F910F91FF90EF90089541155105B1F033
:102560007B01EC010C811D81040F151FB8010E9435
:102570007412882351F3288139818C819D81B701A0
:10258000820F931F0E941E4B1D830C8381E0DECFC0
:10259000CF93DF93EC01FB0101900020E9F7319725
:1025A000AF01461B570B0E949C12811103C0CE0144
:1025B0000E945A12CE01DF91CF910895CF93DF93FD
:1025C000EC01FB0144815581608171810E949C1264
:1025D000811103C0CE010E945A12CE01DF91CF912A
:1025E0000895FB0101900020E9F73197AF01461BE8
:1025F000570B0C949C12FB014481558160817181C1
:102600000C949C12EF92FF920F931F93CF93DF9342
:10261000EC017B018A01BA010E94741281110BC086
:10262000CE010E945A12CE01DF91CF911F910F91DE
:10263000FF90EF9008951D830C83B70188819981E5
:102640000E941E4BF0CFFB0101900020E9F731976B
:10265000AF01461B570B0C9402130F931F93CF939C
:10266000DF93CDB7DEB762970FB6F894DEBF0FBE2B
:10267000CDBF8C01CB01F80111821082138212822E
:10268000158214824AE0BE016F5F7F4F0E9424438F
:10269000BE016F5F7F4FC8010E94231362960FB681
:1026A000F894DEBF0FBECDBFDF91CF911F910F9188
:1026B0000895EF92FF920F931F93CF93DF93CDB7BF
:1026C000DEB7A1970FB6F894DEBF0FBECDBF7C0179
:1026D000CB01BA01F7011182108213821282158296
:1026E00014828E010F5F1F4F22E044E00E94DD4103
:1026F000009789F0BC01C7010E942313A1960FB671
:10270000F894DEBF0FBECDBFDF91CF911F910F9127
:10271000FF90EF900895C7010E945A12EFCF0F93D8
:102720001F93CF93DF93CDB7DEB7A1970FB6F89481
:10273000DEBF0FBECDBF8C01CB01BA01F801118203
:10274000108213821282158214822AE0AE014F5F3A
:102750005F4F0E942F43BE016F5F7F4FC8010E94F1
:102760002313A1960FB6F894DEBF0FBECDBFDF9145
:10277000CF911F910F910895CF93DF93EC01FB014F
:102780008617970749F0608171816115710541F0E5
:10279000448155810E940213CE01DF91CF910895AB
:1027A0000E945A12F9CFFC01118210821382128208
:1027B000158214820C94BC130F931F93CF93DF9355
:1027C00000D000D0CDB7DEB78C01862F642F70E02B
:1027D00090E00E94A710B801CE0101960E94D31389
:1027E000CE0101960E94230DCE0101960E946C122B
:1027F00026960FB6F894DEBF0FBECDBFDF91CF9106
:102800001F910F9108958F929F92AF92BF92CF9296
:10281000DF92EF92FF92CF93DF93CDB7DEB7A19710
:102820000FB6F894DEBF0FBECDBF6B01BC01CE0169
:1028300001960E94D31362EB73E0CE0101960E94D1
:10284000C812BC0183EC9CE00E94F502CE01019607
:102850000E946C120D2C000CEE08FF08F7FE43C01E
:102860006DE283EC9CE00E94C60322273327A90176
:102870002C193D094E095F0919A2CE0181967C01F0
:102880009AE0892E912CA12CB12CCA01B901A50185
:1028900094010E94B248605DF70162937F012115A7
:1028A00031054105510589F7E114F10429F0B7011B
:1028B00083EC9CE00E94691165E973E083EC9CE085
:1028C0000E946911A1960FB6F894DEBF0FBECDBF6E
:1028D000DF91CF91FF90EF90DF90CF90BF90AF90BE
:1028E0009F908F900895A701960119A2CE0181961D
:1028F0007C018AE0882E912CA12CB12CCA01B9014F
:10290000A50194010E94B248605DF70162937F01C6
:10291000211531054105510589F7C6CFFC0111820A
:1029200010821382128215821482FB010190002012
:10293000E9F73197AF01461B570B0C940213EF9246
:10294000FF920F931F93CF93DF931F921F92CDB7E8
:10295000DEB78C017B0167E973E00E948E14C7012A
:102960000E94B40697FD0EC08A30910559F0898304
:102970001A8241E050E0BE016F5F7F4FC8010E94A4
:102980009C12EDCFC8010F900F90DF91CF911F9156
:102990000F91FF90EF900895AF92BF92CF92DF9288
:1029A000EF92FF920F931F93CF93DF93CDB7DEB7D4
:1029B0002C970FB6F894DEBF0FBECDBF6B017C0124
:1029C000A42E122FB02E61EC74E0CE0107960E9467
:1029D0008E14612F70E08A2D90E00E94A71020E0F5
:1029E00030E0A901C701B6010E944B478823C1F01E
:1029F00002EB12E02B2D45E0C701B6010E94DD413C
:102A0000B801CE0101960E948E14BE016F5F7F4F08
:102A1000CE0107960E942112CE0101960E946C12EF
:102A2000BE01695F7F4FCE0101960E94D313CE0194
:102A300001960E94230DCE0101960E946C12CE01D8
:102A400007960E946C122C960FB6F894DEBF0FBE4C
:102A5000CDBFDF91CF911F910F91FF90EF90DF904D
:102A6000CF90BF90AF9008950F931F93CF93DF93B4
:102A700000D000D0CDB7DEB78B01BC01CE010196EE
:102A80000E94D3136AEE74E0CE0101960E94C81230
:102A9000BC0183EC9CE00E94F502CE0101960E94ED
:102AA0006C1269EB73E0012B11F066EB73E0CE0161
:102AB00001960E948E14BE016F5F7F4F83EC9CE0F5
:102AC0000E949E11CE0101960E946C1226960FB6AE
:102AD000F894DEBF0FBECDBFDF91CF911F910F9154
:102AE00008950F931F93CF93DF9300D000D0CDB7FD
:102AF000DEB784369105F4F48C010A9774F465EC22
:102B000074E0CE0101960E948E14CE0101960E94BF
:102B1000230DCE0101960E946C12B801CE010196E0
:102B20000E942D13CE0101960E94230DCE01019625
:102B30000E946C1226960FB6F894DEBF0FBECDBF72
:102B4000DF91CF911F910F910895DF92EF92FF9245
:102B50000F931F93CF93DF9300D000D0CDB7DEB794
:102B60007C01D62E6DEB73E0CE0101960E948E148F
:102B70004D2D60E0CE0101960E94DC13CE0101963E
:102B80000E946C12F70184819581969587950AE0E1
:102B900010E0081B190BB701CE0101960E94D31358
:102BA0004D2D602FCE0101960E94DC13CE010196BF
:102BB0000E946C1226960FB6F894DEBF0FBECDBFF2
:102BC000DF91CF911F910F91FF90EF90DF900895CB
:102BD000FF920F931F93CF93DF9300D000D0CDB718
:102BE000DEB7F62E142F803127E29207BCF597FF4F
:102BF00003C09195819591099F938F9381ED93E007
:102C00009F938F9382EB92E09F938F930E94344B1C
:102C1000612F70E08F2D90E00E94A71062EB72E0B0
:102C2000CE0101960E948E14CE0101960E94230DC2
:102C3000CE0101960E946C120F900F900F900F9092
:102C40000F900F9026960FB6F894DEBF0FBECDBF43
:102C5000DF91CF911F910F91FF900895BC01990FC3
:102C6000880B990B0E94524720E030E04AE754E479
:102C70000E94504901E0212F4F2D0E94CC14E2CF39
:102C8000CF93DF9300D000D0CDB7DEB765ED73E012
:102C9000CE0101960E948E1441E060E0CE010196C3
:102CA0000E94DC13CE0101960E946C1220E030E0FD
:102CB000A901609197027091980280919902909178
:102CC0009A020E944B471816C4F16EEC76E0CE01D2
:102CD00001960E948E1441E064E0CE0101960E94AC
:102CE000DC13CE0101960E946C12609197027091E4
:102CF00098028091990290919A020E94C249CB0158
:102D000041E066E00E94E8156EE77DE0CE010196A5
:102D10000E94D31341E06CE0CE0101960E94DC13C7
:102D2000CE0101960E946C1226960FB6F894DEBF73
:102D30000FBECDBFDF91CF9108956EE77DE0CE014C
:102D400001960E94D31341E065E0CE0101960E94F6
:102D5000DC13CE0101960E946C126CED73E0CE0183
:102D600001960E948E1441E06CE0CE0101960E9413
:102D7000DC13CE0101960E946C1260919702709153
:102D800098028091990290919A020E94C249CB01C7
:102D900041E06FE00E94E815C7CFEF92FF920F93DA
:102DA0001F93CF93DF93CDB7DEB762970FB6F8943A
:102DB000DEBF0FBECDBF7C018B0167E973E0CE01A2
:102DC0000D960E948E1460EE73E00115110529F036
:102DD0000130110531F469EE73E0CE010D960E94C9
:102DE0002313B801CE0107960E942D13BE01635F25
:102DF0007F4FCE0101960E94D313BE01695F7F4FC2
:102E0000CE0101960E94DE12BC01C7010E94D313BD
:102E1000CE0101960E946C12CE0107960E946C12A0
:102E2000CE010D960E946C12C70162960FB6F894FF
:102E3000DEBF0FBECDBFDF91CF911F910F91FF90ED
:102E4000EF900895AF92BF92CF92DF92EF92FF92F0
:102E50000F931F93CF93DF93CDB7DEB7A4970FB631
:102E6000F894DEBF0FBECDBF67E973E0CE014F9689
:102E70000E948E1485E4A82E82E0B82EF5014485C8
:102E8000558566857785CE0143960E94591398E64D
:102E9000C92E92E0D92EF601448555856685778541
:102EA000CE010D960E9459132BE8E22E22E0F22E5D
:102EB000F7014485558566857785CE0107960E9482
:102EC000591369E277E0CE0101960E948E14BE018B
:102ED000695F7F4FCE0101960E94DE1261EF73E0C1
:102EE0000E94C812BE01635F7F4F0E94DE1261EF35
:102EF00073E00E94C812BE016D5E7F4F0E94DE1219
:102F000061EF73E00E94C812BC01CE014F960E948F
:102F1000BC13CE0101960E946C12CE0107960E944E
:102F20006C12CE010D960E946C12CE0143960E9447
:102F30006C1208EE12E0F80160857185CE014996A9
:102F40000E942D13F80166817781CE0143960E947D
:102F50002D1340915A0850915B0860915C08709164
:102F60005D08CE010D960E945913F80140815181F0
:102F700062817381CE0101960E945913BE016F5F79
:102F80007F4FCE0107960E94D31361EF73E0CE010D
:102F900007960E94C812BE01635F7F4F0E94DE1237
:102FA00061EF73E00E94C812BE016D5E7F4F0E9408
:102FB000DE1261EF73E00E94C812BE01675E7F4FB0
:102FC0000E94DE1261EF73E00E94C812BC01CE01C4
:102FD0004F960E94FB12CE0107960E946C12CE0102
:102FE00001960E946C12CE010D960E946C12CE01C9
:102FF00043960E946C12CE0149960E946C12409139
:10300000E20A5091E30A6091E40A7091E50ACE0168
:1030100049960E9459134091D80A5091D90A60915B
:10302000DA0A7091DB0ACE0143960E94591340914F
:10303000F70A5091F80A6091F90A7091FA0ACE01E4
:103040000D960E9459134091ED0A5091EE0A60913D
:10305000EF0A7091F00ACE0101960E945913BE0149
:103060006F5F7F4FCE0107960E94D31361EF73E02D
:10307000CE0107960E94C812BE01635F7F4F0E9477
:10308000DE1261EF73E00E94C812BE016D5E7F4FD9
:103090000E94DE1261EF73E00E94C812BE01675EFB
:1030A0007F4F0E94DE1261EF73E00E94C812BC01E4
:1030B000CE014F960E94FB12CE0107960E946C1221
:1030C000CE0101960E946C12CE010D960E946C12E8
:1030D000CE0143960E946C12CE0149960E946C125A
:1030E000F8016485758586859785681B790BCE0107
:1030F0000D960E942D134091CE0A5091CF0A6091F7
:10310000D00A7091D10ACE0101960E945913BE01D6
:103110006F5F7F4FCE0107960E94D31361EF73E07C
:10312000CE0107960E94C812BE01635F7F4F0E94C6
:10313000DE1261EF73E00E94C812BC01CE014F960F
:103140000E94FB12CE0107960E946C12CE010196DE
:103150000E946C12CE010D960E946C12F601408501
:10316000518562857385CE0149960E945913F601F7
:103170004481558166817781CE0143960E9459131F
:10318000F7014085518562857385CE010D960E94B9
:103190005913F7014481558166817781CE010196EB
:1031A0000E945913BE016F5F7F4FCE0107960E94A8
:1031B000D31361EF73E0CE0107960E94C812BE01DF
:1031C000635F7F4F0E94DE1261EF73E00E94C812BE
:1031D000BE016D5E7F4F0E94DE1261EF73E00E94C0
:1031E000C812BE01675E7F4F0E94DE1261EF73E07E
:1031F0000E94C812BC01CE014F960E94FB12CE0164
:1032000007960E946C12CE0101960E946C12CE01AC
:103210000D960E946C12CE0143960E946C12CE0154
:1032200049960E946C120E949C0BAB01BC01CE011E
:1032300043960E948F136091B90A7091BA0ACE0129
:103240000D960E942D13F501408551856285738589
:10325000CE0101960E945913BE016F5F7F4FCE01D0
:1032600007960E94D31361EF73E0CE0107960E9488
:10327000C812BE01635F7F4F0E94DE1261EF73E0F0
:103280000E94C812BE016D5E7F4F0E94DE12BC011B
:10329000CE014F960E94FB12CE0107960E946C123F
:1032A000CE0101960E946C12CE010D960E946C1206
:1032B000CE0143960E946C12BE01615E7F4F89E889
:1032C0009BE00E949E11CE014F960E946C12A49624
:1032D0000FB6F894DEBF0FBECDBFDF91CF911F9127
:1032E0000F91FF90EF90DF90CF90BF90AF90089537
:1032F000CF92DF92EF92FF920F931F93CF93DF93C2
:1033000000D000D0CDB7DEB78C0163EF73E0CE0103
:1033100001960E948E14B801CE0101960E94DE1221
:10332000BC0183EC9CE00E949E11CE0101960E949C
:103330006C1263E074E0CE0101960E948E1470E07E
:1033400060E0CE0101960E943415CE0101960E94E4
:103350006C120091180B10E06FE074E0CE01019642
:103360000E948E14B801CE0101960E943415CE0140
:1033700001960E946C120091700710E06BE174E0FE
:10338000CE0101960E948E14B801CE0101960E94D2
:103390003415CE0101960E946C1267E274E0CE01F2
:1033A00001960E948E1470E060E0CE0101960E94AA
:1033B0003415CE0101960E946C120091000810E0B5
:1033C00063E374E0CE0101960E948E14B801CE0131
:1033D00001960E943415CE0101960E946C12009154
:1033E000590810E06FE374E0CE0101960E948E143C
:1033F000B801CE0101960E943415CE0101960E94BB
:103400006C120091040810E06BE474E0CE010196A8
:103410000E948E14B801CE0101960E943415CE018F
:1034200001960E946C1200916F0710E067E574E04E
:10343000CE0101960E948E14B801CE0101960E9421
:103440003415CE0101960E946C120091C30A10E05F
:1034500063E674E0CE0101960E948E14B801CE019D
:1034600001960E943415CE0101960E946C120091C3
:10347000070B10E06FE674E0CE0101960E948E14F7
:10348000B801CE0101960E943415CE0101960E942A
:103490006C120091C00A10E06BE774E0CE01019657
:1034A0000E948E14B801CE0101960E943415CE01FF
:1034B00001960E946C120091C10A10E066E874E067
:1034C000CE0101960E948E14B801CE0101960E9491
:1034D0003415CE0101960E946C1200911C0810E078
:1034E00060E974E0CE0101960E948E14B801CE010D
:1034F00001960E943415CE0101960E946C1208EECE
:1035000012E0F801E084F1846CE974E0CE010196E8
:103510000E948E14B701CE0101960E940314CE01C1
:1035200001960E946C12F801E680F78068EA74E068
:10353000CE0101960E948E14B701CE0101960E9421
:103540000314CE0101960E946C12F8016081718112
:10355000828193810E94C2496B0164EB74E0CE01C9
:1035600001960E948E14B601CE0101960E940314AA
:10357000CE0101960E946C1226960FB6F894DEBF1B
:103580000FBECDBFDF91CF911F910F91FF90EF90B4
:10359000DF90CF900895EF92FF920F931F93CF93F8
:1035A000DF93CDB7DEB72C970FB6F894DEBF0FBE12
:1035B000CDBF8C017B0160EC74E0CE0107960E94C8
:1035C0008E1467E973E0C8010E948E14C701F7FEEC
:1035D00004C0882799278E199F099F938F9387ECA2
:1035E00094E09F938F9382EB92E09F938F930E943E
:1035F000344B62EB72E0CE0107960E9423130F90CA
:103600000F900F900F900F900F906CEC74E0F7FC00
:1036100002C06FEC73E0CE0101960E948E14BE01D1
:10362000695F7F4FCE0101960E94DE12BC01C80186
:103630000E94BC13CE0101960E946C12CE01079627
:103640000E946C12C8012C960FB6F894DEBF0FBE14
:10365000CDBFDF91CF911F910F91FF90EF90089513
:103660000F931F93CF93DF93CDB7DEB7AA970FB613
:10367000F894DEBF0FBECDBF8C0167E973E0CE01C9
:1036800085960E948E14F801B197EE35F10508F089
:103690005DC18827E15BF44E8F4F0C94114A801F67
:1036A000A61CA11FA41FA71FAD1FA61CB31FB61FDA
:1036B000B01FA61CA61CA61CA61CA61CA61C581F38
:1036C000671F6A1F6D1F701F731FA61CA61C551F46
:1036D000A61CA61CA61CA61CA61C781F951FB51C04
:1036E000D21EE01EA61CE71EEE1EFA1E091F101FAA
:1036F0001B1FA61CA61C221F2C1FA61C321FA61CAB
:10370000AD1B391FA61CA61CA61C4E1FBF1FA61C46
:10371000F11FA61CA61CA61CAA1FA61C761FA61C71
:10372000DB1EE41EA61C161FF51E021F0C1F141F15
:103730001E1FA61CA61C291F2F1FA61C361FA61C59
:10374000A61C3C1FA61CA61CA61C521FEE1FA61CD6
:10375000A61CB91FA61CBC1F7D1F60915A08709142
:103760005B0880915C0890915D0802EB12E022E01A
:1037700044E00E94DD41B801CE014F960E948E14B4
:1037800060915102709152028091530290915402C3
:103790000E94C249CE0149960E94CB1A6091E8026C
:1037A0007091E9028091EA029091EB0222E044E0FC
:1037B0000E94DD41B801CE0143960E948E146091B3
:1037C00074027091750280917602909177020E9446
:1037D000C249CE010D960E94CB1A6091970270915A
:1037E00098028091990290919A020E94C249CE015A
:1037F00001960E94CB1ABE016F5F7F4FCE010796E4
:103800000E94D31361EF73E0CE0107960E94C812A5
:10381000BE01635F7F4F0E94DE1261EF73E00E9482
:10382000C812BE016D5E7F4F0E94DE1261EF73E031
:103830000E94C812BE01675E7F4F0E94DE1261EFD8
:1038400073E00E94C812BE01615E7F4F0E94DE12CB
:1038500061EF73E00E94C812BC01CE0185960E9400
:10386000BC13CE0107960E946C12CE0101960E94F5
:103870006C12CE010D960E946C12CE0143960E94EE
:103880006C12CE0149960E946C12CE014F960E9496
:103890006C128091D0029091D1026EEC74E0892B71
:1038A00011F465EC74E0CE0143960E948E14809171
:1038B0005B076EEC74E0811102C065EC74E0CE0130
:1038C0000D960E948E1480915C076EEC74E081115D
:1038D00002C065EC74E0CE0101960E948E14BE0118
:1038E0006F5F7F4FCE0107960E94D31361EF73E0A5
:1038F000CE0107960E94C812BE01635F7F4F0E94EF
:10390000DE1261EF73E00E94C812BE016D5E7F4F50
:103910000E94DE12BC01CE0185960E94FB12CE01F0
:1039200007960E946C12CE0101960E946C12CE0185
:103930000D960E946C12CE0143960E946C12BE013D
:103940006B5D7F4F86E29CE00E949E11CE018596C2
:103950000E946C12AA960FB6F894DEBF0FBECDBFC0
:10396000DF91CF911F910F91089540915102509195
:1039700052026091530270915402CE0143960E940C
:1039800059134091740250917502609176027091C2
:103990007702CE010D960E945913409197025091E3
:1039A00098026091990270919A02CE0101960E944C
:1039B0005913BE016F5F7F4FCE0107960E94D3134C
:1039C00061EF73E0CE0107960E94C812BE01635FEB
:1039D0007F4F0E94DE1261EF73E00E94C812BE01A9
:1039E0006D5E7F4F0E94DE1261EF73E00E94C8128D
:1039F000BC01CE0185960E94BC13CE0107960E94A1
:103A00006C12CE0101960E946C12CE010D960E949E
:103A10006C12CE0143960E946C126091F00270917C
:103A2000F102CE0149960E942D136091EE02709131
:103A3000EF02CE0143960E942D1340915A085091F7
:103A40005B0860915C0870915D08CE010D960E9444
:103A500059134091E8025091E9026091EA02709195
:103A6000EB02CE0101960E945913BE016F5F7F4F9A
:103A7000CE0107960E94D31361EF73E0CE01079643
:103A80000E94C812BE01635F7F4F0E94DE1261EF89
:103A900073E00E94C812BE016D5E7F4F0E94DE126D
:103AA00061EF73E00E94C812BE01675E7F4F0E9403
:103AB000DE1261EF73E00E94C812BC01CE01859650
:103AC0000E94FB12CE0107960E946C12CE01019655
:103AD0000E946C12CE010D960E946C12CE0143968C
:103AE0000E946C12CE0149960E946C124091E20A2B
:103AF0005091E30A6091E40A7091E50ACE0149967B
:103B00000E9459134091D80A5091D90A6091DA0A5B
:103B10007091DB0ACE0143960E9459134091F70A37
:103B20005091F80A6091F90A7091FA0ACE010D9647
:103B30000E9459134091ED0A5091EE0A6091EF0AEC
:103B40007091F00ACE0101960E945913BE016F5F79
:103B50007F4FCE0107960E94D31361EF73E0CE0131
:103B600007960E94C812BE01635F7F4F0E94DE125B
:103B700061EF73E00E94C812BE016D5E7F4F0E942C
:103B8000DE1261EF73E00E94C812BE01675E7F4FD4
:103B90000E94DE1261EF73E00E94C812BC01CE01E8
:103BA00085960E94FB12CE0107960E946C12CE01F0
:103BB00001960E946C12CE010D960E946C12CE01ED
:103BC00043960E946C12CE0149960E946C1260913D
:103BD000F4027091F5028091F6029091F702681B51
:103BE000790BCE010D960E942D134091CE0A509173
:103BF000CF0A6091D00A7091D10ACE0101960E943D
:103C00005913BE016F5F7F4FCE0107960E94D313F9
:103C100061EF73E0CE0107960E94C812BE01635F98
:103C20007F4F0E94DE1261EF73E00E94C812BC0158
:103C3000CE0185960E94FB12CE0107960E946C125F
:103C4000CE0101960E946C12CE010D960E946C125C
:103C50006091D0027091D102CE0143960E942D1343
:103C600060915B0770E0CE010D960E942D1360916C
:103C70005C0770E0CE0101960E942D13BE016F5FBC
:103C80007F4FCE0107960E94D31361EF73E0CE0100
:103C900007960E94C812BE01635F7F4F0E94DE122A
:103CA00061EF73E00E94C812BE016D5E7F4F0E94FB
:103CB000DE1261EF73E00E94C812BC01CE0185964E
:103CC0000E94FB12CE0107960E946C12CE01019653
:103CD0000E946C12CE010D960E946C12CE0143968A
:103CE0000E946C120E949C0BAB01BC01CE01499654
:103CF0000E948F1360911A0870911B0880913A02FC
:103D000090913B02680F791FCE0143960E942D13BC
:103D10006091190870E0CE010D960E942D136091FC
:103D20001C0870E0CE0101960E942D13BE016F5F4A
:103D30007F4FCE0107960E94D31361EF73E0CE014F
:103D400007960E94C812BE01635F7F4F0E94DE1279
:103D500061EF73E00E94C812BE016D5E7F4F0E944A
:103D6000DE1261EF73E00E94C812BE01675E7F4FF2
:103D70000E94DE12BC01CE0185960E94FB12CE018C
:103D800007960E946C12CE0101960E946C12CE0121
:103D90000D960E946C12CE0143960E946C12CE01C9
:103DA0004996CBCD8091F4029091F5029093F70261
:103DB0008093F602CBCD1092F7021092F602C6CD98
:103DC00081E080935B07C2CD10925B07BFCD81E09D
:103DD00090E09093D1028093D002B8CD83E090E040
:103DE00090933B0280933A02B1CD10923B02109225
:103DF0003A02ACCD81E08093550810923C020E94BB
:103E00002F0DA4CD81E08093550880933C0280E083
:103E1000F6CF10925A079ACD81E080935A0796CD3B
:103E200081E080935C0792CD10925C071092D102E2
:103E30001092D0028BCD1092010888CD81E0809342
:103E4000010884CD8EE490E09093F1028093F0021B
:103E50007DCD89E490E0F8CF83E590E0F5CF88E56B
:103E600090E0F2CF81E08093050870CD10920508B4
:103E70006DCD0E94100D6ACD80913802882341F0EB
:103E800010929D0D60E081E99DE00E94610B5ECD86
:103E90001092900D60E084E89DE0F7CF81E0809380
:103EA000000854CD1092000851CD8AE090E0CCCFAC
:103EB0008AE090E09093EF028093EE029093BF022D
:103EC0008093BE0290933E0280933D023FCD84E1F9
:103ED00090E0F0CF8EE190E0EDCF88E290E0EACF85
:103EE00082E390E0E7CF8CE390E0E4CF10921C08EF
:103EF00010921B0810921A0829CD10921908F8CFB9
:103F000081E080931C081092190880911A08909102
:103F10001B08181619060CF019CD91958195910979
:103F200090931B0880931A0811CD81E080931908A3
:103F300010921C0880911A0890911B0897FF06CDDB
:103F4000ECCF82E090E0ECCF84E090E0E9CF86E037
:103F500090E0E6CF88E090E0E3CF8AE090E0E0CF29
:103F600084E190E0DDCF88E290E0DACF8CE390E06E
:103F7000D7CF80E590E0D4CF84E690E0D1CF809198
:103F8000BE029091BF029093EF028093EE02809167
:103F9000C0029091C1029093F1028093F0021092BE
:103FA000D1021092D0020E94100D10925B07109265
:103FB0005C0710923B0210923A020E94A70D1092E9
:103FC000050810925A071092010810921B081092CF
:103FD0001A081092190810921C08B8CC0E94C70E3B
:103FE000B5CC0E948711B2CCAF92BF92CF92DF9234
:103FF000EF92FF920F931F93CF93DF93CDB7DEB76E
:1040000062970FB6F894DEBF0FBECDBF6C017B0187
:104010005A010E94291160ED74E0CE0101960E94C0
:104020008E1460E0CE0101960E94A515CE01019686
:104030000E946C12B601CE0101960E94D31361E07A
:10404000CE0101960E94A515CE0101960E946C1228
:104050000E941B0E10925D07F70180819181F7018C
:10406000329601E010E0219131912817390734F49C
:104070000F5F1F4FA016B106B4F7F1CF68EE73E0E3
:1040800080E090E00E9475060E946A0E8091C10A4D
:1040900081112FC08091C00A882311F00F5F1F4F3C
:1040A000A016B10614F401E010E06DED74E0CE014D
:1040B00001960E948E1462E0CE0101960E94A51521
:1040C000CE0101960E946C12F801EE0FFF1FEE0D5B
:1040D000FF1D60817181CE0101960E94CD1663E0C3
:1040E000CE0101960E94A515CE0101960E946C1288
:1040F000C5CF0E9429116DED74E0CE0101960E949A
:104100008E1460E0CE0101960E94A515CE010196A5
:104110000E946C12B601CE0101960E94D31361E099
:10412000CE0101960E94A515CE0101960E946C1247
:10413000000F111F0E0D1F1DF80160817181CE014E
:1041400007960E94CD1667EE74E0CE0101960E949C
:104150008E14BE01695F7F4FCE0101960E94DE1270
:10416000BC01CE010D960E94D31362E0CE010D96E4
:104170000E94A515CE010D960E946C12CE010196EB
:104180000E946C12CE0107960E946C1268EE73E0DA
:1041900080E090E00E947506F8018081918162962E
:1041A0000FB6F894DEBF0FBECDBFDF91CF911F9148
:1041B0000F91FF90EF90DF90CF90BF90AF90089558
:1041C0000F931F93CF93DF93CDB7DEB72C970FB626
:1041D000F894DEBF0FBECDBF1A86198621E030E00D
:1041E0003C872B8718861F82BC01CE0101960E9456
:1041F000D31342E050E0BE01695F7F4FCE010196CC
:104200000E94F41F8C01CE0101960E946C12C8011D
:104210002C960FB6F894DEBF0FBECDBFDF91CF91C5
:104220001F910F91089585ED8093BC008091610BE3
:104230009091620BA091630BB091640B0796A11D46
:10424000B11D23E0B695A795979587952A95D1F747
:104250002091BC0024FD03C010925F0B0895409193
:10426000610B5091620B6091630B7091640B452B55
:10427000462B472B69F30097A105B10541F02AE2CF
:104280002A95F1F700C00197A109B109E1CF80910A
:10429000600B0C94D109CF92DF92EF92FF920F93B3
:1042A0001F93CF93DF9300D000D0CDB7DEB763EC80
:1042B00076E089E89BE00E94731109EE13E089E83B
:1042C0009BE00E947A03892BE9F461E070E080E0D2
:1042D00090E00E9475060150110989F7C12CD12C7C
:1042E0007601C701B60126960FB6F894DEBF0FBE61
:1042F000CDBFDF91CF911F910F91FF90EF90DF9095
:10430000CF90089589E89BE00E947A03892B31F3CE
:1043100069E87BE0CE0101960E949F14BE016F5FA9
:104320007F4F83EC9CE00E949E1189819A81C12C71
:10433000D12C7601009721F00E9420436B017C0173
:10434000CE0101960E946C12CCCF8F929F92AF92B9
:10435000BF92CF92DF92EF92FF9280915908909195
:10436000070B9111D0C0811102C00E940B0910925D
:10437000E60A10921D08C090E802D090E902E09091
:10438000EA02F090EB026091EE027091EF02072ECC
:10439000000C880B990B0E9452474B015C01AC0149
:1043A0009B01C701B6010E944B4787FFA7C020E0D1
:1043B00030E0A901C701B6010E94F84918160CF0B7
:1043C0009DC081E08093E60AA7019601C501B40172
:1043D0000E94E34820E030E04AE754E40E94B147FD
:1043E00020E030E04AE754E40E94E4480E94C949D2
:1043F000683E83E0780710F468EE73E0693B8BE079
:10440000780710F068EB7BE070930B0860930A0864
:104410006091F2027091F302072E000C880B990B49
:104420000E9452474B015C01AC019B01C701B601E0
:104430000E94F84987FD06C01092F7021092F6021A
:1044400010921E0880911E08882379F1A50194011D
:10445000C701B6010E944B4787FF27C081E08093C8
:10446000E60AA7019601C501B4010E94E34820E0D5
:1044700030E04AE754E40E94B14720E030E04AE7E8
:1044800054E40E94E4480E94C949683E83E07807EA
:1044900010F468EE73E0693B8BE0780710F068EB8E
:1044A0007BE070930B0860930A086091F0027091B2
:1044B000F102072E000C880B990B0E9452479B01BA
:1044C000AC01C701B6010E94F84918160CF061C092
:1044D0001092E60A81E080931D0810920B0810925A
:1044E0000A0870E060E089E0FF90EF90DF90CF90E5
:1044F000BF90AF909F908F900C94560510920B0830
:1045000010920A0885CF81114DC060E081E39BE0E5
:104510000E9411100E94AF086093E8027093E902B4
:104520008093EA029093EB020E940B09C090E8028C
:10453000D090E902E090EA02F090EB0220E030E057
:1045400042EB52E4C701B6010E944B4787FD0AC007
:1045500020E030E040E251ECC701B6010E94F8498A
:10456000181614F41092070B20E030E04EEF52ECD6
:10457000C701B6010E944B4781110BC01092E8029F
:104580001092E9021092EA021092EB0281E080930D
:10459000070BFF90EF90DF90CF90BF90AF909F9070
:1045A0008F9008950E944B21C1CF4F925F927F92CE
:1045B0008F929F92AF92BF92CF92DF92EF92FF9233
:1045C0000F931F93CF93DF93CDB7DEB7C457D109B5
:1045D0000FB6F894DEBF0FBECDBF83EC9CE00E9407
:1045E000CA021092AE071092AD071092660B10929D
:1045F000880B0E94B30989ED9AE09093D1078093CC
:10460000D0078AED9AE09093D5078093D40781E094
:104610008093650B8FE38093870B0E94F2098111D1
:1046200002C01092380261E08DE30E941A058DE30A
:1046300090E090937307809372071092A60D80917B
:1046400000008E010F5F1F4F803109F46DC0B8016B
:1046500090E080E00E941308882309F465C08D81F2
:104660008F3309F461C08FE38D838091AB0D9091FE
:10467000AC0D0E94DB0770E060E08091AB0D909183
:10468000AC0D0E94BC0740E06EE48091AB0D9091B0
:10469000AC0D0E94880740E06B818091AB0D90913A
:1046A000AC0D0E94880740E06C818091AB0D909129
:1046B000AC0D0E94880780910000803141F040E0FD
:1046C0006D818091AB0D9091AC0D0E948807809117
:1046D000AB0D9091AC0D2091A80D222319F10E94F1
:1046E000DB07882309F140E06CEC8091AB0D9091E1
:1046F000AC0D0E9488074091A20D68E48091AB0D3B
:104700009091AC0D0E9488078091A20D81112EC05E
:1047100064E170E080E090E00E9475068091AB0D4E
:104720009091AC0D0E94DB078AE08093A50D8091EB
:10473000A90D8230B0F1F12C8091A90DF81688F501
:104740008091A50D8C3069F16F2DC8010E94111068
:104750008981803121F1C8010E9485089091A50DC1
:10476000981710F48093A50DF394E6CF8091A30DD4
:10477000882329F060E08091A40D0E94EC0464E19C
:1047800070E080E090E00E9475068091A30D882380
:1047900029F261E08091A40D0E94EC04BFCF8CE06F
:1047A000DDCF80913802882309F475C081E99DE04E
:1047B0000E94CC10E091AB0DF091AC0D13861586E4
:1047C000148612861186108617821682158214822C
:1047D00013821092A90D1092AA0DFF24F394B80130
:1047E0008091AB0D9091AC0D0E94910F882309F43C
:1047F0005EC067E0C8010E941E0798858913EFCF4D
:104800008091A90D8F5F8093A90D8981883231F045
:1048100008F044C0803111F0823209F78091AA0D6E
:104820008F5F8093AA0D8091A20D811126C0809187
:10483000AB0D9091AC0D0E94DB07B8018091AB0DE0
:104840009091AC0D0E94BC0740E064EB8091AB0DF1
:104850009091AC0D0E9488078091AB0D9091AC0DAA
:104860000E943507E82E8091AB0D9091AC0D0E940F
:10487000DB07E11002C0F092A20D89818031A9F01E
:10488000C8010E9485089091A50D981708F0A7CF40
:104890008093A50DA4CF84E89DE08ACF8B3309F4E3
:1048A000BDCF823409F09BCFB9CF8CE0ECCF0E9412
:1048B000100D0E9405126091E4027091E502809152
:1048C000E6029091E7029B01AC010E944B478111E7
:1048D0000E94D3118091E4029091E502A091E6023A
:1048E000B091E70280933F0290934002A09341026F
:1048F000B09342028093BC0A9093BD0AA093BE0A73
:10490000B093BF0A81E08093390261E089E00E94A0
:104910001A0561E08AE00E941A0561E08EE30E94B8
:104920001A0561E08FE30E941A0561E080E40E94AD
:104930001A0561E083E40E941A0562E087E00E94A4
:104940001A0562E086E00E941A0562E085E00E9496
:104950001A0562E084E00E941A0562E083E00E948A
:104960001A0562E082E00E941A0562E08DE00E9472
:104970001A0562E08CE00E941A0562E08BE00E945A
:104980001A0562E085E40E941A0562E084E40E9450
:104990001A0562E082E40E941A0562E083E40E9444
:1049A0001A0562E081E40E941A0562E082E40E9436
:1049B0001A050E9429111092C20A109269070E94DA
:1049C0006A0E8091BB0A811110C28091C00A8823AF
:1049D00009F459C06EEE74E0C8010E948E1460E0C4
:1049E000C8010E94A515C8010E946C126DEF74E009
:1049F000C8010E948E1461E0C8010E94A515C8017B
:104A00000E946C126CE075E0C8010E948E1462E096
:104A1000C8010E94A515C8010E946C126DE175E0E5
:104A2000C8010E948E1443E060E0C8010E94DC13BC
:104A3000C8010E946C1265E0E62EF12CDD24D394AF
:104A4000E114F10401F10E941B0E0E946A0E809194
:104A50005D078823A9F310925D07B701C8010E9482
:104A60002D1343E062E1C8010E94DC13C8010E94DB
:104A70006C1281E0E81AF1088091BB0A882301F3E7
:104A8000D0926907DDCF8091C10A882309F467C0FD
:104A900066E275E0C8010E948E1460E0C8010E94C1
:104AA000A515C8010E946C126DEF74E0C8010E9448
:104AB0008E1461E0C8010E94A515C8010E946C1205
:104AC0006CE075E0C8010E948E1462E0C8010E948B
:104AD000A515C8010E946C126DE175E0C8010E9425
:104AE0008E1443E060E0C8010E94DC13C8010E94FC
:104AF0006C1255E0E52EF12CDD24D394E114F10481
:104B000071F10E941B0E0E946A0E80915D0788233E
:104B1000A9F310925D07B701C8010E942D1343E06D
:104B200062E1C8010E94DC13C8010E946C12E1E03E
:104B3000EE1AF1088091BB0A882301F3D092C20AD1
:104B40000E94291166E275E0C8010E948E1460E09F
:104B5000C8010E94A515C8010E946C12CFCF809198
:104B60006907882309F441C10E94291163E375E0B4
:104B7000C8010E948E1460E0C8010E94A515C801FA
:104B80000E946C1260ED77E080E090E00E94750674
:104B90000E94051263E475E0C8010E948E1462E56C
:104BA00075E0CE0107960E948E1461E675E0CE0195
:104BB0000D960E948E1462E775E0CE0143960E9426
:104BC0008E1460E875E0CE0149960E948E1462E969
:104BD00075E0CE014F960E948E1462EA75E0CE0118
:104BE00085960E948E1461EB75E0CE018B960E9433
:104BF0008E146DEB75E0CE01C1960E948E147E017D
:104C0000F7E5EF0EF11CF70116861786108A118A58
:104C10008091BE029091BF02918380838091C002F7
:104C20009091C102938382838091CA029091CB02BA
:104C3000958384838091CC029091CD029783868363
:104C40008091CE029091CF02918780878091D0028F
:104C50009091D102938782878091E2029091E30242
:104C600095878487D12CC12C57010E9429110E945D
:104C70006A0E8091C00A882329F0FFEFCF1ADF0A5D
:104C80000E94291189E0C816D10414F0D12CC12C3E
:104C900086E08C9D40018D9D900C1124800E911E0C
:104CA000B401CE01C7960E94D31360E0CE01C7962F
:104CB0000E94A515CE01C7960E946C12F601EE0F58
:104CC000FF1FEA0DFB1D60817181CE01C7960E9416
:104CD000CD1662E0CE01C7960E94A515CE01C796FB
:104CE0000E946C1268EE73E080E090E00E9475060E
:104CF0000E946A0E7090C10A772009F4B6CFF601BF
:104D00003197E830F10570F48827E657F94D8F4F59
:104D10000C94114AA12AF02A452B9A2BE92B3E2C00
:104D2000C72CDE2C4090BE025090BF02B401CE01D1
:104D300081599F4F0E94D3138AE090E09AAF89AFC8
:104D400084E190E09CAF8BAF8EE190E09EAF8DAFA1
:104D500088E290E021969FAF8EAF219782E390E0AA
:104D600023969FAF8EAF239758AE4FAABE016159CD
:104D70007F4FCE0187599F4F0E94D31345E050E0EB
:104D8000BE01695C7F4FCE0187599F4F0E94F41F7F
:104D90004C01CE0187599F4F0E946C129092BF0226
:104DA0008092BE02CE0181599F4F0E946C12809169
:104DB000BE029091BF02F5019183808368EE73E09B
:104DC00080E090E00E94750671104FCF7E01E7E30E
:104DD000EE0EF11CF6E0EF1AF108C7010E946C120A
:104DE0000E151F05B9F7109269070E9429116EEC84
:104DF00075E0CE01895A9F4F0E948E1462ED75E0D6
:104E0000C8010E948E14BE01695A7F4FC8010E94DA
:104E1000DE12BC01CE01C7960E94D313C8010E94C6
:104E20006C12BE01695C7F4FC8010E94D31360E021
:104E3000C8010E94A515C8010E946C126CED75E0B6
:104E4000C8010E948E1462E0C8010E94A515C80125
:104E50000E946C1268EE75E0C8010E948E1463E037
:104E6000C8010E94A515C8010E946C1268EE73E08B
:104E700080E090E00E9475060E942911CE01C7963D
:104E80000E946C12CE01895A9F4F0E946C121092A0
:104E9000180B61E081E10E941A0560E081E10E9447
:104EA000EC0468EE73E080E090E00E94750660E03C
:104EB00081E10E941A0581E10E94C304FF24F3945A
:104EC000009709F4F12CF0927107892B19F081E019
:104ED0008093180B69EF75E0C8010E948E146F2D46
:104EE00070E0C8010E943415C8010E946C1286E26D
:104EF0009CE00E94CA0261E08FE00E941A0560E017
:104F00008FE00E94EC0464EF71E080E090E00E948A
:104F1000750660E08FE00E941A058FE00E94C304CE
:104F2000FF24F394892B09F4F12CF092170B60E025
:104F300076E0C8010E948E146F2D70E0C8010E94B7
:104F40003415C8010E946C128091170B882321F040
:104F500089E89BE00E94CA02FFB6F89480916A0734
:104F6000811127C0E2EDF4E08491E8E1F5E094914D
:104F7000E82FF0E0EE0FFF1FE75FFB4FA591B49124
:104F8000EC91E92321F461E085E30E94EC0461E007
:104F900085E30E941A058CB580618CBD8CB5806458
:104FA0008CBD61E084E30E941A0561E083E30E9406
:104FB0001A0580916A078F5F80936A07FFBE809110
:104FC0007A00887F80937A0080917A008560809350
:104FD0007A0080917E00816080937E0080917E00C7
:104FE000826080937E0080917E00846080937E004A
:104FF00080917E00806180937E0080917E0080623F
:1050000080937E0060E089E00E94EC0461E08EE322
:105010000E94EC0461E08FE30E94EC0461E080E414
:105020000E94EC0470E060E089E00E94560560E0B8
:1050300081E39BE00E9411100E940B0980913802CD
:1050400040E352E060E0882309F4D1C481E99DE0A7
:105050000E943A1148E252E061E081E99DE00E943D
:105060003A1140E252E062E081E99DE00E943A118B
:1050700048E152E063E081E99DE00E943A1140E19D
:1050800052E064E081E99DE00E943A1148E052E07C
:1050900065E081E99DE00E943A1140E052E066E05F
:1050A00081E99DE00E943A1187E00E94C3046C01EF
:1050B00081E0C114D10409F080E08093700786E09C
:1050C0000E94C30421E0009709F020E0209300082B
:1050D000E090170BEE2039F0892B29F481E08093C2
:1050E00059081092000885E00E94C3045C0181E029
:1050F000A114B10409F080E08093040884E00E94C8
:10510000C3044C0181E08114910409F080E0809394
:105110006F0783E00E94C304FF24F394892B09F0F6
:10512000F12CF0926E0782E00E94C30477247394FE
:10513000892B09F0712C70926D078DE00E94C304D9
:10514000892B19F581E08093C30A88EE93E0909350
:105150006C0780936B078CE00E94C304892B31F4A9
:105160008CED95E090936C0780936B078BE00E9429
:10517000C304892B51F480916B0790916C0788517F
:105180009C4F90936C0780936B0761E08AE00E94CC
:105190001A0561E088E00E941A0570E060E08AE08C
:1051A0000E94560570E060E088E00E94560510926B
:1051B000C10A1092C00A0E946A0E892851F48EE436
:1051C00090E09093F1028093F0029093C10280935B
:1051D000C002872D90E0880F991F8F0D911D82309E
:1051E000910509F434C48330910509F433C401975F
:1051F00009F42AC488E290E090933E0280933D0235
:1052000080913D0290913E029093EF028093EE02D6
:105210009093BF028093BE02C114D10409F01DC453
:1052200083E090E090933B0280933A02F090710704
:10523000FF2019F081E08093180B0E9429116EEC79
:1052400075E0CE0181599F4F0E948E1462ED75E08A
:10525000C8010E948E14BE0161597F4FC8010E948F
:10526000DE12BC01CE0187599F4F0E94D313C801A3
:105270000E946C12CD2839F467E076E0CE018759A0
:105280009F4F0E94F112AB2839F46BE175E0CE011B
:1052900087599F4F0E94F11280910008882339F0AE
:1052A00069E076E0CE0187599F4F0E94F112FF20FE
:1052B00039F06FEF76E0CE0187599F4F0E94F112CF
:1052C000EE2039F067E077E0CE0187599F4F0E94CA
:1052D000F11280915908882339F063EC76E0CE0111
:1052E00087599F4F0E94F1128091C30A882339F099
:1052F0006BE076E0CE0187599F4F0E94F112BE010C
:1053000067597F4FCE0101960E94D313CE010196BB
:105310000E947819CE0101960E946C1280910408B7
:10532000882341F061E08AE00E941A0560E08AE08B
:105330000E94EC04BE0167597F4FCE0101960E9486
:10534000D31360E0CE0101960E94A515CE0101960F
:105350000E946C1280917007882379F06DE076E0EE
:10536000CE0101960E948E1461E0CE0101960E944A
:10537000A515CE0101960E946C1280910408882325
:1053800079F06FE176E0CE0101960E948E1462E022
:10539000CE0101960E94A515CE0101960E946C12C5
:1053A0006091F0027091F102CE0101960E942D13DE
:1053B0006091EE027091EF02CE01C7960E942D130C
:1053C00062E376E0CE01895A9F4F0E948E14BE019F
:1053D000695C7F4FCE01895A9F4F0E94DE1269E3BC
:1053E00076E00E94C812BE016F5F7F4F0E94DE12FE
:1053F00062E476E00E94C812BC01CE0187599F4F3B
:105400000E94BC13CE01895A9F4F0E946C12CE019C
:10541000C7960E946C12CE0101960E946C12BE01CA
:1054200067597F4FCE0101960E94D31362E0CE01EF
:1054300001960E94A515CE0101960E946C1264E4AB
:1054400076E0CE0101960E948E1443E060E0CE012A
:1054500001960E94DC13CE0101960E946C126091AD
:105460003F0270914002809141029091420204E01B
:1054700023E04CE00E94CC1480911C08882309F49E
:10548000F1C260EC72E1CE01C7960E942D1362E575
:1054900076E0CE01895A9F4F0E948E14BE01695C4E
:1054A0007F4FCE01895A9F4F0E94DE1269E076E05D
:1054B0000E94C812BC01CE0101960E94D31363E082
:1054C000CE0101960E94A515CE0101960E946C1294
:1054D000CE01895A9F4F0E946C12CE01C7960E943E
:1054E0006C1280E690E090931B0880931A0868E89D
:1054F00073E180E090E00E947506CE0187599F4FCE
:105500000E946C12CE0181599F4F0E946C12109222
:10551000D1021092D0020E94291160E676E0CE01FD
:1055200001960E948E1461E0CE0101960E94A5159D
:10553000CE0101960E946C12F12CE12C10E000E0EB
:1055400098C28090C0029090C102BE01695F7F4FF7
:10555000CE0181599F4F0E94D31384E490E09AAF0B
:1055600089AF89E490E09CAF8BAF8EE490E09EAF72
:105570008DAF83E590E021969FAF8EAF219788E5B0
:1055800090E023969FAF8EAF239798AE8FAABE016F
:1055900061597F4FCE0187599F4F0E94D31345E039
:1055A00050E0BE01695C7F4FCE0187599F4F0E943A
:1055B000F41F4C01CE0187599F4F0E946C129092AC
:1055C000C1028092C002CE0181599F4F0E946C128D
:1055D0008091C0029091C102F70193838283EECB48
:1055E0008090CA029090CB02BE01635F7F4FCE01D4
:1055F00081599F4F0E94D31380ED97E09AAF89AFF6
:1056000084EC99E09CAF8BAF88EB9BE09EAF8DAFB5
:105610008CEA9DE021969FAF8EAF219780EA9FE0B4
:1056200023969FAF8EAF239784E991E125969FAF94
:105630008EAF259798AE8FAABE0161597F4FCE01DC
:1056400087599F4F0E94D31346E050E0BE01695C2A
:105650007F4FCE0187599F4F0E94F41F4C01CE010E
:1056600087599F4F0E946C129092CB028092CA027F
:10567000CE0181599F4F0E946C128091CA02909175
:10568000CB02F7019583848399CB8090CC029090D4
:10569000CD02BE016D5E7F4FCE0181599F4F0E94AA
:1056A000D31384EB90E09AAF89AF8AEF90E09CAF80
:1056B0008BAF8CE291E09EAF8DAF8EE591E02196AD
:1056C0009FAF8EAF219780E991E023969FAF8EAF79
:1056D000239782EC91E025969FAF8EAF259798AEE9
:1056E0008FAABE0161597F4FCE0187599F4F0E94FB
:1056F000D31346E050E0BE01695C7F4FCE0187596D
:105700009F4F0E94F41F4C01CE0187599F4F0E946A
:105710006C129092CD028092CC02CE0181599F4FA3
:105720000E946C128091CC029091CD02F701978378
:10573000868344CB8090CE029090CF02BE01675EFC
:105740007F4FCE0181599F4F0E94D31384EF91E088
:105750009AAF89AF88EE93E09CAF8BAF8CED95E06C
:105760009EAF8DAF80ED97E021969FAF8EAF2197D2
:1057700084EC99E023969FAF8EAF239798AE8FAAC3
:10578000BE0161597F4FCE0187599F4F0E94D313AD
:1057900045E050E0BE01695C7F4FCE0187599F4FC5
:1057A0000E94F41F4C01CE0187599F4F0E946C123A
:1057B0009092CF028092CE02CE0181599F4F0E94DB
:1057C0006C128091CE029091CF02F7019187808771
:1057D000F5CA8090D0029090D102BE01615E7F4FE9
:1057E000CE0181599F4F0E94D31384EF91E09AAF6D
:1057F00089AF88EE93E09CAF8BAF80ED97E09EAFD2
:105800008DAF88EB9BE021969FAF8EAF219780EA0A
:105810009FE023969FAF8EAF239788E893E125966C
:105820009FAF8EAF259798AE8FAABE0161597F4F6B
:10583000CE0187599F4F0E94D31346E050E0BE012E
:10584000695C7F4FCE0187599F4F0E94F41F4C0126
:10585000CE0187599F4F0E946C129092D102809284
:10586000D002CE0181599F4F0E946C128091D002CC
:105870009091D102F70193878287A0CA8090E202BB
:105880009090E302BE016B5D7F4FCE0181599F4F27
:105890000E94D3131AAE19AE85E090E09CAF8BAF97
:1058A0008AE090E09EAF8DAF8FE090E021969FAFB1
:1058B0008EAF219784E190E023969FAF8EAF239720
:1058C00089E190E025969FAF8EAF25978EE190E01D
:1058D00027969FAF8EAF279783E290E029969FAFE0
:1058E0008EAF299788E290E02B969FAF8EAF2B97D3
:1058F0008DE290E02D969FAF8EAF2D9782E390E0E2
:105900002F969FAF8EAF2F9787E390E061969FAF62
:105910008EAF61978CE390E063969FAF8EAF6397F5
:1059200081E490E065969FAF8EAF659784E690E046
:1059300067969FAF8EAF679798AE8FAABE016159E9
:105940007F4FCE0187599F4F0E94D3134FE050E005
:10595000BE01695C7F4FCE0187599F4F0E94F41FA3
:105960004C01CE0187599F4F0E946C129092E30226
:105970008092E202CE0181599F4F0E946C12809169
:10598000E2029091E302F7019587848717CABE016E
:10599000655D7F4FCE01C7960E94D313CE01C79697
:1059A0000E94E0204C01CE01C7960E946C128A949E
:1059B000892811F40E94B211712C00CABE016F5CDB
:1059C0007F4FCE01C7960E94D313CE01C7960E9487
:1059D000E0204C01CE01C7960E946C128A9489285F
:1059E00009F0ECC90E94D3110E948711E7C984E82D
:1059F0009DE00E943A1148E252E061E084E89DE0B7
:105A00000E943A1140E252E062E084E89DE00E9488
:105A10003A1148E152E063E084E89DE00E943A11C7
:105A200040E152E064E084E89DE00E943A1148E0E1
:105A300052E065E084E89DE00E943A1140E052E0C7
:105A400066E084E89DE02ECB8EE190E0D5CB84E14A
:105A500090E0D2CB8AE090E0CFCB10923B02109244
:105A60003A02E4CB10921B0810921A0840CDF12C98
:105A7000E12C8090E8029090E902A090EA02B090B8
:105A8000EB0220E030E042EB52E4C501B4010E9499
:105A9000F849181654F020E030E040E85FE3C50113
:105AA000B4010E944B4787FF88C08091590881113B
:105AB00002C160E081E39BE00E9411100E94AF08E8
:105AC0006093E8027093E9028093EA029093EB02FC
:105AD00064EF71E080E090E00E9475060E940B097F
