:100000000C9479020C94AA020C94AA020C94AA02F1
:100010000C94AA020C94AA020C94AA020C94AA02B0
:100020000C94AA020C94AA020C94AA020C94AA02A0
:100030000C94AA020C94AA020C94AA020C94AA0290
:100040000C94AA020C94AA020C94AA020C94AA0280
:100050000C94AA020C94AA020C94AA020C94912E5D
:100060000C94AA020C94672E0C943D2E0C94AA02B8
:100070000C94AA020C94AA020C94AA020C94AA0250
:100080000C94AA020C94AA020C94AA020C94AA0240
:100090000C94AA020C94AA020C94AA020C94DB2ED3
:1000A0000C94AA020C94AA020C94AA020C94AA0220
:1000B0000C94AA020C94AA020C94AA020C94AA0210
:1000C0000C94AA020C94AA020C94AA020C94132E6B
:1000D0000C94E92D0C94AA020C94BF2D0C94952D30
:1000E0000C94AA020C9422200C9400060C948420F8
:1000F0000C9487200C9485040C94EC050C943A0322
:100100000C943B200C940D2B0C94D61F0C94BD0A20
:100110000C946A040C9429200C944E030C94BC0A91
:100120000C9497040C94CE1F0C94E70A0C9466046C
:100130000C9493200C940A060C94EA1F0C94FB2C4C
:100140000C947D050C9444200C94FF2F0C94D60243
:100150000C94BB0A0C94A61F0C94891D0C94910559
:100160000C947B040C945C030C9475200C94FD1F80
:100170000C9469200C94EF1F0C9406200C944A20D8
:100180000C94C9050C94C5200C94E42C0C942212F8
:100190000C9451200C942C200C94A8030C94D8059A
:1001A0000C9490200C94F61F0C94F21F0C949B0559
:1001B0000C94AB050C9400200C94E41F0C940320C9
:1001C0000C9441200C94BE2A0C94A3050C94811C21
:1001D0000C94F6050C9410200C945C040C947A1D7D
:1001E0000C94CD0A0C94C21F0C9487050C944720E4
:1001F0000C9478200C940A200C94062C0C948A20E1
:100200000C94622B0C9454200C942B030C948104BA
:100210000C94140B0C94C91F0C9462040C944C2085
:100220000C94560B0C94BF050C94DD1F0C9481208C
:100230000C94F5030C9470050C94B72B0C94E81FE8
:100240000C94BB1F0C94BE0A0C94A1040C94B81F10
:100250000C947B200C94AF1F0C94E01F0C9493041F
:100260000C9478050C948D200C94C2200C948F046F
:100270000C94B41F0C949C040C9426200C940D2018
:100280000C94B5050C94E2050C945B2C0C94890439
:100290000C949D040C943E200C946E040C947704F2
:1002A0000C94C7400C94E00A0C947E200C947104CA
:1002B0000C94E50200407A10F35A00A0724E18091F
:1002C0000010A5D4E80000E87648170000E40B54BD
:1002D000020000CA9A3B000000E1F505000080968C
:1002E0009800000040420F000000A08601000000BE
:1002F000102700000000E803000000006400000078
:1003000000000A00000000000100000000002C7640
:10031000D888DC674F0823DFC1DFAE59E1B1B7965B
:10032000E5E3E453C63AE651997696E8E6C28426B8
:10033000EB898C9B62ED407C6FFCEFBC9C9F40F294
:10034000BAA56FA5F490055A2AF75C936B6CF96710
:100350006DC11BFCE0E40D47FEF520E6B500D0EDD5
:10036000902E0300943577050080841E080000203D
:100370004E0A000000C80C333333330F986E1283DB
:100380001141EF8D2114893BE65516CFFEE6DB18AF
:10039000D1844B381BF77C1D901DA4BBE424203274
:1003A00084725E228100C9F124ECA1E53D27005E44
:1003B000BCE2613FDD83C29C7E20A3FD1F41009D06
:1003C00023BE46DB65F88C11AF32CA57E9740000D2
:1003D0002100240027002A002D00300033000101F5
:1003E0000000040107010A01000022002500280086
:1003F0002B002E003100340002010000050108012D
:100400000B0100000A0B02090C0D0E080703040182
:1004100000000000000000000000000000000000DC
:1004200000000000000000000000000000001211A9
:1004300010000000000000000000000000000000AC
:100440000000000000000000000020002300260043
:1004500029002C002F0032000001000003010601DA
:10046000090105050505070508080808020202023A
:100470000A0A080804040404010101010101010140
:100480000303030303030303040707070C0C0C0C0B
:100490000C0C0C0C020202020606060606060606F4
:1004A0000B0B0B0B0B0B0B0B010210202008081081
:1004B00020401020408002010201080402010102D4
:1004C00004081020408080402010080402018004AD
:1004D0000201804020100804020108040201010208
:1004E0000408102040800102040810204080FF2FE3
:1004F000C74011241FBECFEFD1E2DEBFCDBF00E069
:100500000CBF17E0A0E0B2E0E0E2F7E900E00BBFCB
:1005100002C007900D92A834B107D9F72DE0A8E4E6
:10052000B7E001C01D92AC3BB207E1F712E0C8E7AB
:10053000D2E000E006C021970109802FFE010E9451
:100540008547C737D10780E00807A9F70E942C31FB
:100550000C947E4B0C940000FC01A089B18982E0D0
:100560008C93A089B1891C92A485B5851C92A6851F
:10057000B78580E18C93108EA489B58986E08C9331
:10058000A289B3898C9180618C93A289B3898C9163
:1005900088608C93A289B3898C9180688C9302883F
:1005A000F389E02D80818F7D808308950895DB019C
:1005B00014964D915C9115976D917C91DC01ED91B4
:1005C000FC910280F381E02D1994AF92BF92CF92FB
:1005D000DF92EF92FF920F931F93CF93DF936C0103
:1005E0007B018B01040F151FEB015E01AE18BF08E4
:1005F000C017D10759F06991D601ED91FC91019096
:10060000F081E02DC6011995892B79F7C501DF919D
:10061000CF911F910F91FF90EF90DF90CF90BF90FF
:10062000AF900895FC01A089B1898C91A689B78902
:1006300082FD0FC09C91818D8F5F8F73228D8217F9
:1006400049F0A18DAE0FBF2FB11D5D969C93818F98
:1006500008958C910895FC01538D448D252F30E031
:10066000842F90E0821B930B541710F0CF960895BF
:1006700001970895FC01918D828D981761F0A28DEC
:10068000AE0FBF2FB11D5D968C91928D9F5F9F73B2
:10069000928F90E008958FEF9FEF0895FC01918D68
:1006A000828D981731F0828DE80FF11D858D90E0D5
:1006B00008958FEF9FEF0895FC01918D228D892F72
:1006C00090E0805C9F4F821B91098F73992708955A
:1006D0008AE79BE00E945C0321E0892B09F420E07B
:1006E000822F089587E19CE00E945C0321E0892B22
:1006F00009F420E0822F089584EB9CE00E945C03C3
:1007000021E0892B09F420E0822F0895FC01A48DBB
:10071000A80FB92FB11DA35ABF4F2C91848D90E023
:1007200001968F739927848FA689B7892C93A08906
:10073000B1898C91837080648C93938D848D981390
:1007400006C00288F389E02D80818F7D8083089523
:10075000EF92FF920F931F93CF93DF93EC0181E011
:10076000888F9B8D8C8D98131AC0E889F9898081B8
:1007700085FF15C09FB7F894EE89FF896083E889EB
:10078000F98980818370806480839FBF81E090E0DD
:10079000DF91CF911F910F91FF90EF900895F62E6A
:1007A0000B8D10E00F5F1F4F0F731127E02E8C8D04
:1007B0008E110CC00FB607FCFACFE889F989808149
:1007C00085FFF5CFCE010E948603F1CFEB8DEC0FB4
:1007D000FD2FF11DE35AFF4FF0829FB7F8940B8F66
:1007E000EA89FB8980818062CFCFCF93DF93EC01D0
:1007F000888D8823B9F0AA89BB89E889F9898C9109
:1008000085FD03C0808186FD0DC00FB607FCF7CFC4
:100810008C9185FFF2CF808185FFEDCFCE010E94C4
:100820008603E9CFDF91CF91089580E090E0892B96
:1008300029F00E947C0381110E94000080E090E07A
:10084000892B49F080E090E0892B29F00E9400007C
:1008500081110E94000080E090E0892B29F00E9425
:10086000720381110E94000080E090E0892B29F042
:100870000E94680381110C94000008958150823118
:1008800008F05AC0E82FF0E08827E65BFB4F8F4F57
:100890000C9485476A046E045C04620466049C043C
:1008A000710477047B048104850489048F04930414
:1008B0009C0497049D04A104809180008F7780930D
:1008C00080000895809180008F7DF9CF8091800015
:1008D000877FF5CF84B58F7784BD089584B58F7DEC
:1008E000FBCF8091B0008F778093B0000895809106
:1008F000B0008F7DF9CF809190008F77809390002A
:100900000895809190008F7DF9CF80919000877F2E
:10091000F5CF8091A0008F778093A00008958091FB
:10092000A0008F7DF9CF8091A000877FF5CF8091C7
:1009300020018F77809320010895809120018F7D81
:10094000F9CF80912001877FF5CFCF93DF93282FB8
:1009500030E0F901EE5FFB4F8491F901E855FB4F60
:10096000D491F901EE59FB4FC491CC23A1F0811130
:100970000E943E04EC2FF0E0EE0FFF1FE85BFB4F00
:10098000A591B491EC91ED2381E090E009F480E031
:10099000DF91CF91089580E090E0FACF1F93CF933D
:1009A000DF93282F30E0F901EE5FFB4F8491F901CE
:1009B000E855FB4FD491F901EE59FB4FC491CC237C
:1009C000A9F0162F81110E943E04EC2FF0E0EE0FEB
:1009D000FF1FE851FC4FA591B4918FB7F894EC91AB
:1009E000111108C0D095DE23DC938FBFDF91CF912A
:1009F0001F910895DE2BF8CFCF93DF9390E0FC0199
:100A0000E855FB4F24918E599B4FFC01849188231C
:100A1000C9F090E0880F991FFC01E253FC4FA591AB
:100A2000B491FC01E851FC4FC591D49161110DC006
:100A30009FB7F8948C91209582238C9388812823EA
:100A400028839FBFDF91CF910895623051F49FB703
:100A5000F8943C91822F809583238C93E8812E2BF0
:100A6000EFCF8FB7F894EC912E2B2C938FBFEACF5A
:100A70001F93CF93DF93182FEB0161E00E94FC04DA
:100A8000209739F460E0812FDF91CF911F910C9472
:100A9000CE04CF3FD10511F461E0F5CFE12FF0E0B6
:100AA000EE5FFB4FE491E150E23108F0B3C0F0E0BB
:100AB0008827E25AFA4F8F4F0C94854770057805C6
:100AC0007D05870591050A069B05A305AB05B505C0
:100AD000BF05C905D805E2050A06EC05F6050006BE
:100AE00084B5806884BDC7BDDF91CF911F91089503
:100AF00084B5806284BDC8BDF7CF809180008068D6
:100B000080938000D0938900C0938800EDCF8091BE
:100B10008000806280938000D0938B00C0938A0015
:100B2000E3CF80918000886080938000D0938D0017
:100B3000C0938C00D9CF8091B00080688093B000C2
:100B4000C093B300D1CF8091B00080628093B00099
:100B5000C093B400C9CF80919000806880939000CA
:100B6000D0939900C0939800BFCF8091900080628D
:100B700080939000D0939B00C0939A00B5CF809152
:100B80009000886080939000D0939D00C0939C005B
:100B9000ABCF8091A00080688093A0008091A000DE
:100BA0008F7B8093A000D093A900C093A8009CCF16
:100BB0008091A00080628093A000D093AB00C0938E
:100BC000AA0092CF8091A00088608093A000D0936B
:100BD000AD00C093AC0088CF8091200180688093E5
:100BE0002001D0932901C09328017ECF809120015C
:100BF000806280932001D0932B01C0932A0174CF8F
:100C000080912001886080932001D0932D01C093B2
:100C10002C016ACFC038D1050CF03ECF33CF8633DC
:100C200008F0865320917B00982F9870277F922B95
:100C300090937B002091390290E4299F9001112428
:100C40008770822B80937C0080917A0080648093EF
:100C50007A0080917A0086FDFCCF80917800909197
:100C6000790008953FB7F8948091EE079091EF07CF
:100C7000A091F007B091F10726B5A89B05C02F3FC2
:100C800019F00196A11DB11D3FBFBA2FA92F982FB2
:100C90008827BC01CD01620F711D811D911D42E0AD
:100CA000660F771F881F991F4A95D1F708958F9275
:100CB0009F92AF92BF92CF92DF92EF92FF926B0121
:100CC0007C010E9432064B015C01C114D104E10495
:100CD000F104B9F00E943206681979098A099B0962
:100CE000683E73408105910580F321E0C21AD10866
:100CF000E108F10888EE880E83E0981EA11CB11C63
:100D0000E4CFFF90EF90DF90CF90BF90AF909F9097
:100D10008F9008952FB7F8946091EA077091EB07D0
:100D20008091EC079091ED072FBF08950F931F93CB
:100D3000CF93DF93EC010E948A06688779878A87C0
:100D40009B87CE010E943A0397FF15C00E948A0636
:100D5000088519852A853B85601B710B820B930BD7
:100D60000C811D812E813F816017710782079307D7
:100D700040F38FEF9FEFDF91CF911F910F91089577
:100D8000CF92DF92EF92FF920F931F93CF93DF9357
:100D90007C016B01EA01DC01ED91FC9161E0808155
:100DA0000E94CE0401E811E0C09EC001C19E900DDA
:100DB000D09E900D1124880F991F880F991F0597B9
:100DC0000197F1F7D701ED91FC9160E080810E94DD
:100DD000CE04C09FC001C19F900DD09F900D1124E3
:100DE000880F991F880F991F05970197F1F7DF91D9
:100DF000CF911F910F91FF90EF90DF90CF900895CA
:100E0000DC0180E0615090F09D919827E92FEF7010
:100E1000F0E0E255FC4F2491E92FE295EF70F0E00D
:100E2000E254FC4FE491822F8E27ECCF0895DC0131
:100E30002C911196ED91FC91F8948181822B818304
:100E40009281322F30959323928387E090E001972F
:100E5000F1F781818323818383E290E00197F1F7A9
:100E600090817894EFECF0E03197F1F7922381E0F4
:100E700009F480E00895FC0190810180F281E02D69
:100E8000292F209560FF14C0F894828182238283E9
:100E90008181892B8183A3E2B0E01197F1F78281F0
:100EA000982B9283789487ED90E00197F1F708955D
:100EB000F8948281822382838181892B8183AFEFA1
:100EC000B0E01197F1F78281982B928378948FE0AC
:100ED00090E0EBCFDF92EF92FF920F931F93CF93AF
:100EE000DF93EC01D62EE42E08E010E0FF24F3940B
:100EF00061E08D2D8F2109F460E0CE010E943B0757
:100F0000FF0C01501109A1F7E11010C0F894E9811C
:100F1000FA8191818881809589238183E981FA8191
:100F2000928188818095892382837894DF91CF9103
:100F30001F910F91FF90EF90DF900895EF92FF9235
:100F40000F931F93CF93DF938C017B0140E065E506
:100F50000E946A07E70188E0E80EF11C699140E011
:100F6000C8010E946A07CE15DF05C1F7DF91CF9156
:100F70001F910F91FF90EF900895FC0190810180E7
:100F8000F281E02DF8948181292F2095822381839D
:100F900078943DE743E050E0315029F1DA011197B0
:100FA000F1F780818923C1F3F894828182238283BF
:100FB0008181892B81837894ABE7B7E01197F1F7B2
:100FC000F894818182238183A3E1B1E01197F1F745
:100FD0008081982381E009F080E07894E3E6F6E0F0
:100FE0003197F1F7089580E008956F927F928F9284
:100FF0009F92AF92BF92CF92DF92EF92FF920F93A8
:101000001F93CF93DF938C01EB0180919C0D909106
:101010009D0D0E94BD07882309F43FC0B80180914F
:101020009C0D90919D0D0E949E0740E06EEB80917B
:101030009C0D90919D0D0E946A077E016E0189E0D2
:10104000C80ED11C8E01A0909C0DB0909D0D88E023
:10105000882E912C712C66246394C5010E94170779
:1010600081117628660CE1E08E1A9108B1F7F8013B
:1010700071928F01CE16DF0631F780919C0D909111
:101080009D0D0E94BD07813041F4F70181917F01E0
:10109000811105C0E017F107C1F790E008C068E0D2
:1010A000CE010E94000791E028852813F6CF892FF2
:1010B000DF91CF911F910F91FF90EF90DF90CF9034
:1010C000BF90AF909F908F907F906F900895CF9337
:1010D000DF9300D000D000D0CDB7DEB7BE016F5F88
:1010E0007F4F82E29BE00E94F507811105C060E01E
:1010F00070E08EEF92EC3EC06A8170E0762F66273A
:10110000770F770F770F298148E0249F90011124F2
:10111000262B372B8091220B8031E1F468856623E2
:10112000C9F070E08F81AB01481B5109CA01969547
:10113000982F8827979587950E947147CB018097B4
:10114000B90153E0660F771F5A95E1F760789C016B
:10115000260F371F213854EE35074CF2B901330FF3
:10116000880B990B0E94C94420E030E040E05CE32A
:101170000E94284529960FB6F894DEBF0FBECDBF5A
:10118000DF91CF910895CF93DF9300D000D000D0AE
:10119000CDB7DEB7BE016F5F7F4F0E94F507882392
:1011A00031F08D818F33A9F020F48F31A1F080E0F0
:1011B00007C08F3521F08F37D1F78CE001C08BE06D
:1011C00029960FB6F894DEBF0FBECDBFDF91CF9149
:1011D00008958AE0F5CF89E0F3CFCF92DF92EF92C6
:1011E000FF92CF938091220B803159F182E29BE0F4
:1011F0000E94C308C82F882309F46EC080919C0DFB
:1012000090919D0D0E94BD0762E27BE080919C0D54
:1012100090919D0D0E949E074091930D64E48091F2
:101220009C0D90919D0D0E946A078091970D8111F0
:101230000AC0C1E08C2FCF91FF90EF90DF90CF904C
:101240000895CCE0DBCF8091980D8823E1F0809168
:10125000930D811118C00E948A066B017C01809158
:101260009C0D90919D0D0E941707813011F30E94F3
:101270008A066C197D098E099F096E3E72408105B0
:10128000910568F3D6CFC9508EEE92E0C33040F49A
:10129000EC2FF0E0EE0FFF1FE35CFC4F80819181AB
:1012A0006C01990FEE08FF088091940D882329F0B6
:1012B00060E08091950D0E94CE04C701B6010E94A6
:1012C0005706C091940DCC2309F4B3CF61E080910F
:1012D000950D0E94CE04AECFC0E0ACCF2091C407E4
:1012E000260F3327331F21323105ECF42091500BA8
:1012F000FC0190E080E0243069F082E00895A09144
:10130000C4072191AC014E55584FA40FB52FB11D04
:101310002C930196861798F38091C407680F609309
:10132000C40780E0089581E008951092500B81E099
:1013300080934F0B10922A0B61E084E10E94CE044F
:1013400061E085E10E94CE04E9EBF0E080818E7FD0
:10135000808380818D7F808388E48093B80085E4DA
:101360008093BC000895CF93DF9391E09093A10701
:101370008823B9F0C091B800D091BA008091BC0028
:101380008A7B8093BC0060E084E10E94CE0460E030
:1013900085E10E94CE040E949509D093BA00C093C3
:1013A000B800DF91CF910895CF92DF92EF92FF9234
:1013B0000F931F93CF93DF93D091790B81E0D132BC
:1013C00008F09CC0C091780B0E9432066B017C0132
:1013D0008091500B81116CC082E08093500B81E0B2
:1013E00080934F0B8FEF80934E0B10924D0BD09349
:1013F0004C0BA8E5BBE0ECE2FBE080E0D8138DC02D
:1014000010922B0B80912B0BCC0FC82BC0932B0B66
:1014100080912A0B813009F084C010922A0B0E941F
:1014200032066B017C0180912B0B8093BB00809175
:10143000520B9091530BA091540BB091550B892BEB
:101440008A2B8B2BA1F00E9432060091520B109137
:10145000530B2091540B3091550B6C197D098E095B
:101460009F09061717072807390708F442C080911B
:10147000BC0083FDD8CF85EC8093BC000E9432066F
:101480006B017C018091500B823009F44CC080913B
:101490004E0B8F3F09F469C080914E0B803209F4E6
:1014A00066C080914E0B803309F463C084E026C08F
:1014B0008091520B9091530BA091540BB091550B0E
:1014C000892B8A2B8B2B09F483CF0E943206009143
:1014D000520B1091530B2091540B3091550B6C19FA
:1014E0007D098E099F09061717072807390708F095
:1014F0006FCF8091510B0E94B30985E01092570B7A
:101500001092790B1092560BDF91CF911F910F9192
:10151000FF90EF90DF90CF9008959D9191938F5F12
:101520006DCF85EEA9CF8091520B9091530BA09176
:10153000540BB091550B892B8A2B8B2B09F4A2CF1E
:101540000E9432060091520B1091530B2091540BC4
:101550003091550B6C197D098E099F0906171707E5
:101560002807390708F08ECFC4CF80E0C7CF82E0CC
:10157000C5CF83E0C3CF089508950895E091A007F3
:1015800080919F07E81730F4F0E0E158F84F808130
:1015900090E008958FEF9FEF08959091A0078091BC
:1015A0009F072FEF3FEF981748F4E92FF0E0E1583D
:1015B000F84F208130E09F5F9093A007C901089504
:1015C00080919F079091A007891B990B0895CF9256
:1015D000DF92EF92FF920F931F93CF93DF937C01E3
:1015E000CB018A012091560B222389F0EB016B017C
:1015F000C40ED51ECC15DD0569F06991D701ED91BA
:10160000FC910190F081E02DC7011995F3CF642F73
:101610000E946E09C801DF91CF911F910F91FF9039
:10162000EF90DF90CF900895CF93DF931F92CDB7C7
:10163000DEB769832091560B2223F9F02091790BB4
:10164000203258F021E030E0FC013383228390E027
:1016500080E00F90DF91CF9108958091570BE82F94
:10166000F0E0E85AF44F998190838F5F8093570B95
:101670008093790B81E090E0ECCF61E0CE010196A0
:101680000E946E09F7CFFC01248131E03093560BA4
:101690002093780B1092570B1092790B8485682B4E
:1016A00081E59DE00E94140B0C94D40990E080E049
:1016B000089560937B0770937C0780937D079093D8
:1016C0007E07645D7E4F8F4F9F4F609377077093C7
:1016D00078078093790790937A0782E090E090935F
:1016E0007607809375070E948A066093710770934E
:1016F000720780937307909374070895CF92DF92D7
:10170000EF92FF920F931F930E948A068B019C0118
:10171000C0907107D0907207E0907307F090740743
:1017200060917B0770917C0780917D0790917E0787
:101730000C191D092E093F09083E134021053105EA
:10174000E0F0DC01CB010196A11DB11D80937B0768
:1017500090937C07A0937D07B0937E07B701A60105
:1017600048515C4F6F4F7F4F409371075093720702
:101770006093730770937407C7CF1F910F91FF9009
:10178000EF90DF90CF9008954F925F926F927F928B
:101790008F929F92AF92BF92CF92DF92EF92FF9281
:1017A0000F931F93CF93DF934B015C0180916607EA
:1017B00090916707A0916807B0916907881599050E
:1017C000AA05BB0509F4C6C08CE3C82ED12CE12CB8
:1017D000F12CC501A70196010E94264660936A0775
:1017E000CA01B901A70196010E94264660936B07C2
:1017F000C501B40120E13EE040E050E00E942646F1
:10180000CA01B90128E130E040E050E00E942646DC
:1018100060936C07C501B40120E831E541E050E078
:101820000E94264669017A01CA01B9016C5F7F4FA7
:101830008F4F9F4F27E030E040E050E00E94264667
:101840006F5F60936D07412C512C320140E004E63C
:1018500010E0C0E9D1E0242F30E02E54384FF901D8
:10186000E370FF273097F9F4C901B8010E9471476E
:10187000892B31F4C901BE010E947147892B99F46B
:101880008EE691E0A0E0B0E0480E591E6A1E7B1E75
:10189000D301C201AA27BB27C816D906EA06FB0650
:1018A00038F04F5FD8CF8DE691E0A0E0B0E0ECCF0C
:1018B00040937007C90164E670E00E947147EC0133
:1018C000C90160E971E00E947147309721F42097C7
:1018D000D9F40097C9F04DE651E060E070E0441A99
:1018E000550A660A770AC418D508E608F708A1E37E
:1018F000B3E020E0213069F43097E9F5209711F446
:101900000097C9F54DE106C04EE651E060E070E099
:10191000E6CF4C9150E070E060E031E0320FC41649
:10192000D506E606F70640F0C41AD50AE60AF70A15
:101930001196232F3C30F1F62F5F20936F07C3944D
:10194000C0926E078092660790926707A092680720
:10195000B0926907DF91CF911F910F91FF90EF90A7
:10196000DF90CF90BF90AF909F908F907F906F90BF
:101970005F904F9008954CE1CDCF0E947E0B0E9466
:10198000C40B80916A0790E008950E947E0B0E942C
:10199000C40B80916B0790E008950E947E0B0E941B
:1019A000C40B80916C0790E008951F93CF93DF9351
:1019B000182F0E940F06EC01812F0E940F06BE0116
:1019C000680F791F072E000C880B990B0E94C944E1
:1019D00020E030E040E05FE30E942845DF91CF91B6
:1019E0001F91089580913802882341F088E0809308
:1019F0008E0D60E082E89DE00C94430B88E08093BC
:101A0000810D60E085E79DE0F7CFBC018091380251
:101A1000882321F082E89DE00C94D70285E79DE0C1
:101A2000FBCFAF92BF92CF92DF92EF92FF921F93C4
:101A3000CF93DF93CDB7DEB7A4970FB6F894DEBF90
:101A40000FBECDBF90914708992309F452C0182FBB
:101A500080913C02811709F448C084E697E09CA37A
:101A60008BA382E2E3E7F3E0DE01119601900D9291
:101A70008A95E1F781E38E8B8D8B8E8F8D8F81E33D
:101A8000111101C080E3888F81E3111180E388A3E5
:101A90008FE0E82EF12C5E0181E2A80EB11CFE0160
:101AA00031966F01F60181916F0142E050E061E0F3
:101AB00070E0813321F441E050E062E070E0CE015B
:101AC00083960E94C006AC14BD0461F741E150E06A
:101AD00061E070E0CE0183960E94C006F1E0EF1A4B
:101AE000F108E9F610933C0204C00E94C50C80FF87
:101AF000B4CFA4960FB6F894DEBF0FBECDBFDF9172
:101B0000CF911F91FF90EF90DF90CF90BF90AF905B
:101B10000895CF92DF92EF92FF92CF93DF931092CE
:101B20003B0210923A0280914E07882309F448C084
:101B300020E030E048E452E46091E8027091E9026C
:101B40008091EA029091EB020E94574620E030E03B
:101B500040EA50E40E94C4460E9436476B0161E0AF
:101B60008EE30E94CE046FEF70E088E00E9438059B
:101B7000D7FE04C0D0923B02C0923A0280913A0252
:101B800090913B02029734F482E090E090933B0204
:101B900080933A0280914D078823E1F060E08FE363
:101BA0000E94CE0460E080E40E94CE046FEF8AE0E1
:101BB000DF91CF91FF90EF90DF90CF900C94CE0407
:101BC00060E08EE30E94CE0470E060E088E00E9456
:101BD0003805E0CF61E08FE30E94CE0461E080E44D
:101BE0000E94CE0470E060E08AE0DF91CF91FF9028
:101BF000EF90DF90CF900C943805CF930E94BD0CEE
:101C000020914A0730914B078217930709F442C08D
:101C1000C1E0C0934F070E94BD0C9C0190934B07FD
:101C200080934A0765E070E00E947147892B11F4A8
:101C3000C0935007C9016AE070E00E947147892B88
:101C400019F481E080935107C9016FE070E00E94B0
:101C50007147892B19F481E080935207C9016EE125
:101C600070E00E947147892B19F481E0809353073B
:101C70000E94C50C209148073091490782179307AD
:101C800049F081E0809354070E94C50C9093490766
:101C900080934807CF910895CF93DF9385E40E9406
:101CA000A504EC0181E0209709F080E08093B30A5D
:101CB00084E40E94A5049C0181E02115310509F00E
:101CC00080E08093B20ACD2B19F091E0232B09F428
:101CD00090E09093AD0A8091B50A882391F083E457
:101CE0000E94A50421E0892B09F020E020934808F8
:101CF00082E40E94A50421E0892B09F020E02093D2
:101D00004608DF91CF91089581E0809347081092B3
:101D10003C020E94110D68EE73E080E090E00E94AA
:101D2000570680E00E94110D68EE73E080E090E0BD
:101D30000E94570681E00E94110D68EE73E080E07A
:101D400090E00E94570680E00E94110D1092470813
:101D500008958F929F92AF92BF92CF92DF92EF92AF
:101D6000FF9210920608109205081092080810922F
:101D7000070810920A081092090810928F02109218
:101D8000900210929102109292021092930210927D
:101D90009402109295021092960210926C02109288
:101DA0006D0210926E0210926F02109270021092E9
:101DB00071021092720210927302109249021092F4
:101DC0004A0210924B0210924C0210924D02109255
:101DD0004E0210924F021092500281EF9FEF9093AB
:101DE000F80A8093F70A8091B20A882341F0809123
:101DF000F4029091F5029093F7028093F60210920C
:101E0000D80A109210088090E8029090E902A09001
:101E1000EA02B090EB026091F2027091F302072E99
:101E2000000C880B990B0E94C9446B017C01AC012A
:101E30009B01C501B4010E946C4787FD0DC0109243
:101E4000F7021092F602FF90EF90DF90CF90BF90D4
:101E5000AF909F908F9008958091F4029091F50239
:101E600047972091F6023091F702281739073CF086
:101E700080914C07811103C081E08093100880910C
:101E80001008882301F3A7019601C501B4010E943F
:101E9000C2441816C4F281E08093D80AA5019401C7
:101EA000C701B6010E94574620E030E04AE754E4FB
:101EB0000E94284520E030E04AE754E40E9458465A
:101EC0000E943D47683E83E0780710F468EE73E0B7
:101ED000693B8BE0780710F068EB7BE07093FD07BF
:101EE0006093FC07B0CFBF92CF92DF92EF92FF9248
:101EF0000F931F93CF93DF93EC01B62EC72E8D85E2
:101F0000811105C0CE010E94BD0781110EC01B8644
:101F10001D861C8680E0DF91CF911F910F91FF906D
:101F2000EF90DF90CF90BF90089540E060EFCE013A
:101F30000E946A0701E0E12CD12C11E0CE010E9441
:101F40001707F82ECE010E94170791E0F91218C06A
:101F5000813099F51134D8F2DB86D11002C081E0CE
:101F60008D878B81882399F22396EB2DFC2DCF0151
:101F7000089629912193E817F907D9F781E0CBCF8B
:101F8000EE2DF0E0F8120FC08B851817A0F4DE01DB
:101F9000AE0FBF1F13968C91802379F4F12C19306A
:101FA00008F41C87D12EEC0FFD1F8381902F909594
:101FB000892383830AC08113F1CFFE01EE0DF11D49
:101FC0008381802B8383FF24F3946F2DCE010E94A5
:101FD0003B071F5F000F11F4E39401E087E08E15CB
:101FE00008F0ACCFB7CFFF920F931F93CF93DF933F
:101FF0008C01F62EE0919C0DF0919D0D13861586B7
:102000001486128611861086178216821582148213
:102010001382C0E0B80180919C0D90919D0D0E94AB
:10202000730FD82F882329F0FC1629F0CF5FFC16F8
:1020300088F7D0E008C067E0C8010E940007F801F7
:1020400097818913F3CF8D2FDF91CF911F910F913E
:10205000FF9008958F929F92AF92BF92CF92DF929E
:10206000EF92FF9280914B088111CEC00E94ED0843
:102070001092D80A10920F08C090E802D090E9029E
:10208000E090EA02F090EB026091EE027091EF02B4
:10209000072E000C880B990B0E94C9444B015C0170
:1020A000AC019B01C701B6010E94C24487FFA7C0D3
:1020B00020E030E0A901C701B6010E946C47181664
:1020C0000CF09DC081E08093D80AA7019601C5015C
:1020D000B4010E94574620E030E04AE754E40E94F1
:1020E000284520E030E04AE754E40E9458460E9428
:1020F0003D47683E83E0780710F468EE73E0693B83
:102100008BE0780710F068EB7BE07093FD0760933D
:10211000FC076091F2027091F302072E000C880B0D
:10212000990B0E94C9444B015C01AC019B01C701A2
:10213000B6010E946C4787FD06C01092F70210920C
:10214000F6021092100880911008882379F1A501F9
:102150009401C701B6010E94C24487FF27C081E0F5
:102160008093D80AA7019601C501B4010E94574681
:1021700020E030E04AE754E40E94284520E030E0C7
:102180004AE754E40E9458460E943D47683E83E077
:10219000780710F468EE73E0693B8BE0780710F085
:1021A00068EB7BE07093FD076093FC076091F002A1
:1021B0007091F102072E000C880B990B0E94C94404
:1021C0009B01AC01C701B6010E946C4718160CF0C8
:1021D00044C01092D80A81E080930F081092FD0746
:1021E0001092FC0770E060E089E0FF90EF90DF90D4
:1021F000CF90BF90AF909F908F900C943805109225
:10220000FD071092FC0785CF60E082E29BE00E9410
:10221000F30F0E9467086B017C01C092E802D09224
:10222000E902E092EA02F092EB020E94ED0820E05F
:1022300030E042EB52E4C701B6010E94C24487FD80
:102240000AC020E030E040E251ECC701B6010E9434
:102250006C47181614F410924B08FF90EF90DF9023
:10226000CF90BF90AF909F908F9008950F931F9342
:10227000CF938C01C62F0E94430B6C2F6460C80162
:102280000E94430B6C2F6B7FC8010E94430B83ECB1
:1022900090E00197F1F7CF911F910F9108950F935F
:1022A0001F93CF93DF938C01D62FC42F607F642BB5
:1022B0000E94361180E1D89FB00111246C2BC80117
:1022C000DF91CF911F910F910C943611CF93DF9333
:1022D00000D000D01F921F92CDB7DEB728E0EFEFFD
:1022E000F2E0DE01119601900D922A95E1F7FC01D2
:1022F0002085241710F44FEF420F50E0440F551F74
:1023000021E030E02C0F3D1F420F531FFA012081C6
:10231000620F606840E028960FB6F894DEBF0FBEEB
:10232000CDBFDF91CF910C944F11462F9091380281
:10233000682F992321F082E89DE00C94661185E7CF
:102340009DE0FBCFCF93DF93EC0140E061E00E9482
:102350004F118BE39FE10197F1F78985882339F0CD
:1023600040E060E0CE01DF91CF910C946611DF91E7
:10237000CF910895FF920F931F93CF93DF93EC01BA
:102380008D8188608D8384E0F82EF88662E370E0AA
:1023900080E090E00E9457066C85CE010E94430BBE
:1023A00068EE73E080E090E00E94570660E3CE01A3
:1023B0000E9436110BE416E4C8010197F1F760E3BF
:1023C000CE010E943611C8010197F1F760E3CE01FA
:1023D0000E94361183E592E00197F1F760E2CE01A9
:1023E0000E9436116D81606240E0CE010E944F1163
:1023F000FE8240E06CE0CE010E944F11CE010E94AF
:10240000A21182E08F8340E066E0CE010E944F116E
:1024100040E062E0CE010E944F118BE39FE1019703
:10242000F1F7DF91CF911F910F91FF900895809167
:102430003802882321F082E89DE00C94A21185E700
:102440009DE0FBCF41E00E944F1181E090E00895B4
:10245000EF92FF920F931F93CF93DF938C017A013A
:1024600088E0689FB0011124606440E0C8010E94C8
:102470004F11E70188E0E80EF11C6991C8010E9444
:102480002212CE15DF05C9F7DF91CF911F910F9171
:10249000FF90EF900895682F80913802882321F0F3
:1024A00082E89DE00C94221285E79DE0FBCFFF922D
:1024B0000F931F93CF93DF930EEB12E0D0E0C0E0B9
:1024C000F801F1908F01CE010E94E645F81621F047
:1024D0006F2DCE010E94EE452196CA32D10581F7BB
:1024E0008EEB92E0DF91CF911F910F91FF900895B5
:1024F0000F931F93CF93DF930EEB12E0D0E0C0E079
:10250000CE010E94E645F80181938F012196CA32DF
:10251000D105B1F764EF71E080E090E0DF91CF91F9
:102520001F910F910C945706FB0101900020E9F7D1
:102530003197AF01461B570B0C94E5020F931F9385
:10254000CF93DF93EC010E94D7028C0165E973E021
:10255000CE010E949412800F911FDF91CF911F91A5
:102560000F910895CF93DF93CDB7DEB7AA970FB63B
:10257000F894DEBF0FBECDBF8AE2E7E0F3E0DE01F4
:10258000119601900D928A95E1F78AE2FE0131964B
:10259000AEEBB2E001900D928A95E1F768E973E045
:1025A00084EB9CE00E94941265E973E084EB9CE06C
:1025B0000E9494120E94571264EF71E080E090E054
:1025C000AA960FB6F894DEBF0FBECDBFDF91CF91B4
:1025D0000C9457068091F6029091F7029093C702EF
:1025E0008093C60267EA73E084EB9CE00E94941239
:1025F00065E973E084EB9CE00E94941268EE73E05E
:1026000080E090E00E9457060C94000008950F931C
:102610001F93CF93DF938C01EB01FC0180819181AB
:102620000097E1F06881798161157105A9F0428117
:1026300053812C813D814217530770F00E949248CC
:102640008C819D81F801958384831D821C82DF919A
:10265000CF911F910F9108950E9491418881998196
:10266000F801918380838A819B81938382838C810B
:102670009D8195838483198218821B821A82E5CFFB
:10268000CF93DF93EC0188819981009711F00E942C
:102690009141198218821D821C821B821A82DF914D
:1026A000CF910895FC0180819181009711F00C94E5
:1026B000914108950F931F93CF93DF93EC0188818D
:1026C0009981009759F02A813B812617370730F00E
:1026D00081E0DF91CF911F910F9108958B016F5F82
:1026E0007F4F0E94A847009759F0998388831B83E6
:1026F0000A832C813D81232B59F7FC011082E8CFFE
:1027000080E0E7CFEF92FF920F931F93CF93DF9379
:102710006115710541F480E0DF91CF911F910F9118
:10272000FF90EF90089541155105B1F07B01EC0148
:102730000C811D81040F151FB8010E945A138823B4
:1027400051F3288139818C819D81B701820F931FBC
:102750000E9492481D830C8381E0DECFCF93DF93EC
:10276000EC01FB0101900020E9F73197AF01461B16
:10277000570B0E948213811103C0CE010E944013A7
:10278000CE01DF91CF910895CF93DF93EC01FB0150
:1027900044815581608171810E948213811103C03F
:1027A000CE010E944013CE01DF91CF910895FB012D
:1027B00001900020E9F73197AF01461B570B0C94AD
:1027C0008213FB0144815581608171810C948213D5
:1027D000EF92FF920F931F93CF93DF93EC017B0156
:1027E0008A01BA010E945A1381110BC0CE010E94C6
:1027F0004013CE01DF91CF911F910F91FF90EF9089
:1028000008951D830C83B701888199810E949248A5
:10281000F0CFFB0101900020E9F73197AF01461B93
:10282000570B0C94E8130F931F93CF93DF93CDB7FF
:10283000DEB762970FB6F894DEBF0FBECDBF8C0136
:10284000CB01F80111821082138212821582148248
:102850004AE0BE016F5F7F4F0E941A42BE016F5F68
:102860007F4FC8010E94091462960FB6F894DEBF2C
:102870000FBECDBFDF91CF911F910F910895EF92C1
:10288000FF920F931F93CF93DF93CDB7DEB7A1973E
:102890000FB6F894DEBF0FBECDBF7C01CB01BA01ED
:1028A000F7011182108213821282158214828E0126
:1028B0000F5F1F4F22E044E00E94D740009789F04D
:1028C000BC01C7010E940914A1960FB6F894DEBF9F
:1028D0000FBECDBFDF91CF911F910F91FF90EF9071
:1028E0000895C7010E944013EFCF0F931F93CF931A
:1028F000DF93CDB7DEB7A1970FB6F894DEBF0FBE5A
:10290000CDBF8C01CB01BA01F80111821082138274
:102910001282158214822AE0AE014F5F5F4F0E943F
:102920002542BE016F5F7F4FC8010E940914A19626
:102930000FB6F894DEBF0FBECDBFDF91CF911F91D0
:102940000F910895CF93DF93EC01FB018617970752
:1029500049F0608171816115710541F044815581B3
:102960000E94E813CE01DF91CF9108950E94401399
:10297000F9CFFC0111821082138212821582148217
:102980000C94A2140F931F93CF93DF9300D000D029
:10299000CDB7DEB78C01862F642F70E090E00E94E7
:1029A0009511B801CE0101960E94B914CE0101968D
:1029B0000E94050DCE0101960E94521326960FB675
:1029C000F894DEBF0FBECDBFDF91CF911F910F9165
:1029D00008958F929F92AF92BF92CF92DF92EF9223
:1029E000FF92CF93DF93CDB7DEB7A1970FB6F894E0
:1029F000DEBF0FBECDBF6B01BC01CE0101960E94B0
:102A0000B91462EB73E0CE0101960E94AE13BC01D3
:102A100084EB9CE00E94D702CE0101960E945213E3
:102A20000D2C000CEE08FF08F7FE43C06DE284EBAE
:102A30009CE00E94A80322273327A9012C193D09F5
:102A40004E095F0919A2CE0181967C019AE0892E78
:102A5000912CA12CB12CCA01B901A50194010E94AD
:102A60002646605DF70162937F012115310541051E
:102A7000510589F7E114F10429F0B70184EB9CE0DA
:102A80000E94941265E973E084EB9CE00E9494122A
:102A9000A1960FB6F894DEBF0FBECDBFDF91CF91E8
:102AA000FF90EF90DF90CF90BF90AF909F908F906E
:102AB0000895A701960119A2CE0181967C018AE0B2
:102AC000882E912CA12CB12CCA01B901A501940129
:102AD0000E942646605DF70162937F012115310552
:102AE0004105510589F7C6CFFC011182108213827E
:102AF000128215821482FB0101900020E9F73197C0
:102B0000AF01461B570B0C94E813AF92BF92CF92C4
:102B1000DF92EF92FF920F931F93CF93DF93CDB786
:102B2000DEB72C970FB6F894DEBF0FBECDBF6B019A
:102B30007C01A42E122FB02E65EB74E0CE01079617
:102B40000E947415612F70E08A2D90E00E9495110B
:102B500020E030E0A901C701B6010E94C2448823E9
:102B6000C1F002EB12E02B2D45E0C701B6010E9437
:102B7000D740B801CE0101960E947415BE016F5F67
:102B80007F4FCE0107960E940713CE0101960E9447
:102B90005213BE01695F7F4FCE0101960E94B914A6
:102BA000CE0101960E94050DCE0101960E9452139E
:102BB000CE0107960E9452132C960FB6F894DEBFF2
:102BC0000FBECDBFDF91CF911F910F91FF90EF907E
:102BD000DF90CF90BF90AF900895EF92FF920F9348
:102BE0001F93CF93DF931F921F92CDB7DEB78C0157
:102BF0007B0167E973E00E947415C7010E94960685
:102C000097FD0EC08A30910559F089831A8241E000
:102C100050E0BE016F5F7F4FC8010E948213EDCF6D
:102C2000C8010F900F90DF91CF911F910F91FF90EE
:102C3000EF9008950F931F93CF93DF9300D000D0B0
:102C4000CDB7DEB78B01BC01CE0101960E94B9144D
:102C50006EED74E0CE0101960E94AE13BC0184EBD0
:102C60009CE00E94D702CE0101960E94521369EBAC
:102C700073E0012B11F066EB73E0CE0101960E9428
:102C80007415BE016F5F7F4F84EB9CE00E949E1223
:102C9000CE0101960E94521326960FB6F894DEBF1D
:102CA0000FBECDBFDF91CF911F910F9108950F936C
:102CB0001F93CF93DF9300D000D0CDB7DEB784361B
:102CC0009105F4F48C010A9774F469EB74E0CE0179
:102CD00001960E947415CE0101960E94050DCE0149
:102CE00001960E945213B801CE0101960E9413145E
:102CF000CE0101960E94050DCE0101960E9452134D
:102D000026960FB6F894DEBF0FBECDBFDF91CF91F0
:102D10001F910F910895DF92EF92FF920F931F93EF
:102D2000CF93DF9300D000D0CDB7DEB77C01D62E95
:102D30006DEB73E0CE0101960E9474154D2D60E09D
:102D4000CE0101960E94C214CE0101960E94521338
:102D5000F70184819581969587950AE010E0081B1C
:102D6000190BB701CE0101960E94B9144D2D602FA9
:102D7000CE0101960E94C214CE0101960E94521308
:102D800026960FB6F894DEBF0FBECDBFDF91CF9170
:102D90001F910F91FF90EF90DF900895FF920F9396
:102DA0001F93CF93DF9300D000D0CDB7DEB7F62EC0
:102DB000142F803127E29207BCF597FF03C091954D
:102DC000819591099F938F9381ED93E09F938F93CA
:102DD00082EB92E09F938F930E94A848612F70E04E
:102DE0008F2D90E00E94951162EB72E0CE0101966A
:102DF0000E947415CE0101960E94050DCE01019628
:102E00000E9452130F900F900F900F900F900F9001
:102E100026960FB6F894DEBF0FBECDBFDF91CF91DF
:102E20001F910F91FF900895BC01990F880B990B8A
:102E30000E94C94420E030E04AE754E40E94C446BE
:102E400001E0212F4F2D0E948515E2CFCF93DF9314
:102E500000D000D0CDB7DEB765ED73E0CE010196AE
:102E60000E94741541E060E0CE0101960E94C214F8
:102E7000CE0101960E94521320E030E0A90160913A
:102E80009702709198028091990290919A020E9403
:102E9000C2441816C4F160EC76E0CE0101960E949F
:102EA000741541E064E0CE0101960E94C214CE0187
:102EB00001960E945213609197027091980280913E
:102EC000990290919A020E943647CB0141E066E058
:102ED0000E94CE166FE67DE0CE0101960E94B914E5
:102EE00041E06CE0CE0101960E94C214CE01019631
:102EF0000E94521326960FB6F894DEBF0FBECDBFC8
:102F0000DF91CF9108956FE67DE0CE0101960E949A
:102F1000B91441E065E0CE0101960E94C214CE01D1
:102F200001960E9452136CED73E0CE0101960E944F
:102F3000741541E06CE0CE0101960E94C214CE01EE
:102F400001960E94521360919702709198028091AD
:102F5000990290919A020E943647CB0141E06FE0BE
:102F60000E94CE16C7CFEF92FF920F931F93CF937D
:102F7000DF93CDB7DEB762970FB6F894DEBF0FBE12
:102F8000CDBF7C018B0167E973E0CE010D960E94F5
:102F9000741560EE73E00115110529F0013011057B
:102FA00031F469EE73E0CE010D960E940914B80168
:102FB000CE0107960E941314BE01635F7F4FCE01BE
:102FC00001960E94B914BE01695F7F4FCE01019640
:102FD0000E94C413BC01C7010E94B914CE0101961E
:102FE0000E945213CE0107960E945213CE010D96F5
:102FF0000E945213C70162960FB6F894DEBF0FBE4F
:10300000CDBFDF91CF911F910F91FF90EF90089569
:10301000AF92BF92CF92DF92EF92FF920F931F93E6
:10302000CF93DF93CDB7DEB7A4970FB6F894DEBF8A
:103030000FBECDBF67E973E0CE014F960E947415B5
:1030400085E4A82E82E0B82EF50144855585668575
:103050007785CE0143960E943F1498E6C92E92E0F0
:10306000D92EF6014485558566857785CE010D9666
:103070000E943F142BE8E22E22E0F22EF701448555
:10308000558566857785CE0107960E943F146BE1D2
:1030900077E0CE0101960E947415BE01695F7F4FF3
:1030A000CE0101960E94C41361EF73E00E94AE133B
:1030B000BE01635F7F4F0E94C41361EF73E00E9403
:1030C000AE13BE016D5E7F4F0E94C41361EF73E0CB
:1030D0000E94AE13BC01CE014F960E94A214CE01F5
:1030E00001960E945213CE0107960E945213CE0100
:1030F0000D960E945213CE0143960E94521308EE81
:1031000012E0F80160857185CE0149960E94131482
:10311000F80166817781CE0143960E941314409195
:103120004C0850914D0860914E0870914F08CE01A7
:103130000D960E943F14F801408151816281738194
:10314000CE0101960E943F14BE016F5F7F4FCE01FA
:1031500007960E94B91461EF73E0CE0107960E94B2
:10316000AE13BE01635F7F4F0E94C41361EF73E033
:103170000E94AE13BE016D5E7F4F0E94C41361EFCB
:1031800073E00E94AE13BE01675E7F4F0E94C413BE
:1031900061EF73E00E94AE13BC01CE014F960E9416
:1031A000E113CE0107960E945213CE0101960E94B0
:1031B0005213CE010D960E945213CE0143960E94E7
:1031C0005213CE0149960E9452134091D40A509155
:1031D000D50A6091D60A7091D70ACE0149960E940D
:1031E0003F144091CA0A5091CB0A6091CC0A709169
:1031F000CD0ACE0143960E943F144091E90A5091B6
:10320000EA0A6091EB0A7091EC0ACE010D960E94D9
:103210003F144091DF0A5091E00A6091E10A7091F9
:10322000E20ACE0101960E943F14BE016F5F7F4FFC
:10323000CE0107960E94B91461EF73E0CE010796A4
:103240000E94AE13BE01635F7F4F0E94C41361EF03
:1032500073E00E94AE13BE016D5E7F4F0E94C413E7
:1032600061EF73E00E94AE13BE01675E7F4F0E9464
:10327000C41361EF73E00E94AE13BC01CE014F9600
:103280000E94E113CE0107960E945213CE010196CF
:103290000E945213CE010D960E945213CE01439606
:1032A0000E945213CE0149960E945213F801648580
:1032B000758586859785681B790BCE010D960E94D2
:1032C00013144091C00A5091C10A6091C20A7091D2
:1032D000C30ACE0101960E943F14BE016F5F7F4F6B
:1032E000CE0107960E94B91461EF73E0CE010796F4
:1032F0000E94AE13BE01635F7F4F0E94C41361EF53
:1033000073E00E94AE13BC01CE014F960E94E11300
:10331000CE0107960E945213CE0101960E945213CD
:10332000CE010D960E945213F601408551856285AB
:103330007385CE0149960E943F14F6014481558160
:1033400066817781CE0143960E943F14F701408544
:10335000518562857385CE010D960E943F14F70159
:103360004481558166817781CE0101960E943F1488
:10337000BE016F5F7F4FCE0107960E94B91461EFC7
:1033800073E0CE0107960E94AE13BE01635F7F4FCC
:103390000E94C41361EF73E00E94AE13BE016D5E24
:1033A0007F4F0E94C41361EF73E00E94AE13BE0111
:1033B000675E7F4F0E94C41361EF73E00E94AE13FB
:1033C000BC01CE014F960E94E113CE0107960E94E8
:1033D0005213CE0101960E945213CE010D960E9407
:1033E0005213CE0143960E945213CE0149960E9479
:1033F00052130E947E0BAB01BC01CE0143960E948A
:1034000075146091AB0A7091AC0ACE010D960E94C2
:103410001314F5014085518562857385CE010196AF
:103420000E943F14BE016F5F7F4FCE0107960E943E
:10343000B91461EF73E0CE0107960E94AE13BE018E
:10344000635F7F4F0E94C41361EF73E00E94AE136D
:10345000BE016D5E7F4F0E94C413BC01CE014F962A
:103460000E94E113CE0107960E945213CE010196ED
:103470000E945213CE010D960E945213CE01439624
:103480000E945213BE01615E7F4F8AE79BE00E945B
:103490009E12CE014F960E945213A4960FB6F89436
:1034A000DEBF0FBECDBFDF91CF911F910F91FF9077
:1034B000EF90DF90CF90BF90AF900895CF92DF92C2
:1034C000EF92FF920F931F93CF93DF9300D000D022
:1034D000CDB7DEB78C0163EF73E0CE0101960E9499
:1034E0007415B801CE0101960E94C413BC0184EB8F
:1034F0009CE00E949E12CE0101960E94521363E04E
:1035000074E0CE0101960E94741570E060E0CE0177
:1035100001960E941A16CE0101960E945213009144
:10352000090B10E06FE074E0CE0101960E94741563
:10353000B801CE0101960E941A16CE0101960E9492
:1035400052130091620710E06BE174E0CE01019626
:103550000E947415B801CE0101960E941A16CE0180
:1035600001960E94521367E274E0CE0101960E9418
:10357000741570E060E0CE0101960E941A16CE012B
:1035800001960E9452130091F20710E063E374E089
:10359000CE0101960E947415B801CE0101960E94D9
:1035A0001A16CE0101960E9452130091F60710E000
:1035B0006FE374E0CE0101960E947415B801CE014C
:1035C00001960E941A16CE0101960E945213009194
:1035D000610710E06BE474E0CE0101960E9474155F
:1035E000B801CE0101960E941A16CE0101960E94E2
:1035F00052130091B50A10E067E574E0CE01019620
:103600000E947415B801CE0101960E941A16CE01CF
:1036100001960E94521300914B0810E063E674E09B
:10362000CE0101960E947415B801CE0101960E9448
:103630001A16CE0101960E9452130091B20A10E0B0
:103640006FE674E0CE0101960E947415B801CE01B8
:1036500001960E941A16CE0101960E945213009103
:10366000B30A10E06AE774E0CE0101960E94741577
:10367000B801CE0101960E941A16CE0101960E9451
:10368000521300910E0810E064E874E0CE01019638
:103690000E947415B801CE0101960E941A16CE013F
:1036A00001960E94521308EE12E0F801E084F184C2
:1036B00060E974E0CE0101960E947415B701CE0155
:1036C00001960E94E914CE0101960E945213F8015E
:1036D000E680F7806CE974E0CE0101960E947415D3
:1036E000B701CE0101960E94E914CE0101960E9415
:1036F0005213F80160817181828193810E94364763
:103700006B0168EA74E0CE0101960E947415B6015F
:10371000CE0101960E94E914CE0101960E94521337
:1037200026960FB6F894DEBF0FBECDBFDF91CF91C6
:103730001F910F91FF90EF90DF90CF900895EF923F
:10374000FF920F931F93CF93DF93CDB7DEB72C97E4
:103750000FB6F894DEBF0FBECDBF8C017B0164EBCA
:1037600074E0CE0107960E94741567E973E0C80102
:103770000E947415C701F7FE04C0882799278E1987
:103780009F099F938F938BEB94E09F938F9382EB92
:1037900092E09F938F930E94A84862EB72E0CE0163
:1037A00007960E9409140F900F900F900F900F90A2
:1037B0000F9060EC74E0F7FC02C06FEC73E0CE0198
:1037C00001960E947415BE01695F7F4FCE0101967C
:1037D0000E94C413BC01C8010E94A214CE0101962C
:1037E0000E945213CE0107960E945213C8012C96D4
:1037F0000FB6F894DEBF0FBECDBFDF91CF911F9102
:103800000F91FF90EF9008950F931F93CF93DF9345
:10381000CDB7DEB7AA970FB6F894DEBF0FBECDBF07
:103820008C0167E973E0CE0185960E947415F8015A
:10383000B197EE35F10508F05DC18827ED5DF34ED7
:103840008F4F0C94854754207A1D752078207B205B
:1038500081207A1D87208A2084207A1D7A1D7A1D76
:103860007A1D7A1D7A1D2C203B203E2041204420C9
:1038700047207A1D7A1D29207A1D7A1D7A1D7A1D0E
:103880007A1D4C206920891DA61FB41F7A1DBB1FFD
:10389000C21FCE1FDD1FE41FEF1F7A1D7A1DF61F0A
:1038A00000207A1D06207A1D811C0D207A1D7A1DAC
:1038B0007A1D222093207A1DC5207A1D7A1D7A1D3B
:1038C0007E207A1D4A207A1DAF1FB81F7A1DEA1F7D
:1038D000C91FD61FE01FE81FF21F7A1D7A1DFD1FAA
:1038E00003207A1D0A207A1D7A1D10207A1D7A1D68
:1038F0007A1D2620C2207A1D7A1D8D207A1D9020E7
:10390000512060914C0870914D0880914E08909123
:103910004F0802EB12E022E044E00E94D740B801D9
:10392000CE014F960E94741560915102709152021F
:1039300080915302909154020E943647CE014996DD
:103940000E949F1B6091E8027091E9028091EA0257
:103950009091EB0222E044E00E94D740B801CE01F2
:1039600043960E9474156091740270917502809163
:103970007602909177020E943647CE010D960E9402
:103980009F1B60919702709198028091990290918B
:103990009A020E943647CE0101960E949F1BBE01EB
:1039A0006F5F7F4FCE0107960E94B91461EF73E0FD
:1039B000CE0107960E94AE13BE01635F7F4F0E9447
:1039C000C41361EF73E00E94AE13BE016D5E7F4FC2
:1039D0000E94C41361EF73E00E94AE13BE01675EE4
:1039E0007F4F0E94C41361EF73E00E94AE13BE01CB
:1039F000615E7F4F0E94C41361EF73E00E94AE13BB
:103A0000BC01CE0185960E94A214CE0107960E94A9
:103A10005213CE0101960E945213CE010D960E94C0
:103A20005213CE0143960E945213CE0149960E9432
:103A30005213CE014F960E9452138091D002909162
:103A4000D10262EC74E0892B11F469EB74E0CE01D1
:103A500043960E94741580914D0762EC74E08111C9
:103A600002C069EB74E0CE010D960E94741580913E
:103A70004E0762EC74E0811102C069EB74E0CE0184
:103A800001960E947415BE016F5F7F4FCE010796AD
:103A90000E94B91461EF73E0CE0107960E94AE1345
:103AA000BE01635F7F4F0E94C41361EF73E00E9409
:103AB000AE13BE016D5E7F4F0E94C413BC01CE01E8
:103AC00085960E94E113CE0107960E945213CE0103
:103AD00001960E945213CE010D960E945213CE0100
:103AE00043960E945213BE016B5D7F4F87E19CE0BD
:103AF0000E949E12CE0185960E945213AA960FB67E
:103B0000F894DEBF0FBECDBFDF91CF911F910F9113
:103B10000895409151025091520260915302709168
:103B20005402CE0143960E943F144091740250917A
:103B300075026091760270917702CE010D960E9417
:103B40003F144091970250919802609199027091B0
:103B50009A02CE0101960E943F14BE016F5F7F4F13
:103B6000CE0107960E94B91461EF73E0CE0107966B
:103B70000E94AE13BE01635F7F4F0E94C41361EFCA
:103B800073E00E94AE13BE016D5E7F4F0E94C413AE
:103B900061EF73E00E94AE13BC01CE0185960E94D6
:103BA000A214CE0107960E945213CE0101960E94E4
:103BB0005213CE010D960E945213CE0143960E94DD
:103BC00052136091F0027091F102CE0149960E9469
:103BD00013146091EE027091EF02CE0143960E94A1
:103BE000131440914C0850914D0860914E0870910B
:103BF0004F08CE010D960E943F144091E80250916B
:103C0000E9026091EA027091EB02CE0101960E94F6
:103C10003F14BE016F5F7F4FCE0107960E94B9141B
:103C200061EF73E0CE0107960E94AE13BE01635FA1
:103C30007F4F0E94C41361EF73E00E94AE13BE0178
:103C40006D5E7F4F0E94C41361EF73E00E94AE135C
:103C5000BE01675E7F4F0E94C41361EF73E00E9454
:103C6000AE13BC01CE0185960E94E113CE010796EA
:103C70000E945213CE0101960E945213CE010D965E
:103C80000E945213CE0143960E945213CE014996D0
:103C90000E9452134091D40A5091D50A6091D60ADD
:103CA0007091D70ACE0149960E943F144091CA0AEA
:103CB0005091CB0A6091CC0A7091CD0ACE01439607
:103CC0000E943F144091E90A5091EA0A6091EB0A80
:103CD0007091EC0ACE010D960E943F144091DF0ACC
:103CE0005091E00A6091E10A7091E20ACE010196DA
:103CF0000E943F14BE016F5F7F4FCE0107960E9466
:103D0000B91461EF73E0CE0107960E94AE13BE01B5
:103D1000635F7F4F0E94C41361EF73E00E94AE1394
:103D2000BE016D5E7F4F0E94C41361EF73E00E947D
:103D3000AE13BE01675E7F4F0E94C41361EF73E054
:103D40000E94AE13BC01CE0185960E94E113CE0104
:103D500007960E945213CE0101960E945213CE0183
:103D60000D960E945213CE0143960E945213CE012B
:103D700049960E9452136091F4027091F50280916D
:103D8000F6029091F702681B790BCE010D960E9406
:103D900013144091C00A5091C10A6091C20A7091F7
:103DA000C30ACE0101960E943F14BE016F5F7F4F90
:103DB000CE0107960E94B91461EF73E0CE01079619
:103DC0000E94AE13BE01635F7F4F0E94C41361EF78
:103DD00073E00E94AE13BC01CE0185960E94E113F0
:103DE000CE0107960E945213CE0101960E945213F3
:103DF000CE010D960E9452136091D0027091D102B3
:103E0000CE0143960E94131460914D0770E0CE01DD
:103E10000D960E94131460914E0770E0CE0101963A
:103E20000E941314BE016F5F7F4FCE0107960E9460
:103E3000B91461EF73E0CE0107960E94AE13BE0184
:103E4000635F7F4F0E94C41361EF73E00E94AE1363
:103E5000BE016D5E7F4F0E94C41361EF73E00E944C
:103E6000AE13BC01CE0185960E94E113CE010796E8
:103E70000E945213CE0101960E945213CE010D965C
:103E80000E945213CE0143960E9452130E947E0B51
:103E9000AB01BC01CE0149960E94751460910C08DB
:103EA00070910D0880913A0290913B02680F791F42
:103EB000CE0143960E94131460910B0870E0CE016E
:103EC0000D960E94131460910E0870E0CE010196C9
:103ED0000E941314BE016F5F7F4FCE0107960E94B0
:103EE000B91461EF73E0CE0107960E94AE13BE01D4
:103EF000635F7F4F0E94C41361EF73E00E94AE13B3
:103F0000BE016D5E7F4F0E94C41361EF73E00E949B
:103F1000AE13BE01675E7F4F0E94C413BC01CE0189
:103F200085960E94E113CE0107960E945213CE019E
:103F300001960E945213CE010D960E945213CE019B
:103F400043960E945213CE014996CBCD8091F40244
:103F50009091F5029093F7028093F602CBCD1092E8
:103F6000F7021092F602C6CD81E080934D07C2CDD4
:103F700010924D07BFCD81E090E09093D1028093E5
:103F8000D002B8CD83E090E090933B0280933A0258
:103F9000B1CD10923B0210923A02ACCD81E08093F9
:103FA000470810923C020E94110DA4CD81E080933D
:103FB000470880933C0280E0F6CF10924C079ACDE0
:103FC00081E080934C0796CD81E080934E0792CD9F
:103FD00010924E071092D1021092D0028BCD109207
:103FE000F30788CD81E08093F30784CD8EE490E0E1
:103FF0009093F1028093F0027DCD89E490E0F8CFB8
:1040000083E590E0F5CF88E590E0F2CF81E0809302
:10401000F70770CD1092F7076DCD0E94F20C6ACDB4
:1040200080913802882341F010928E0D60E082E882
:104030009DE00E94430B5ECD1092810D60E085E70C
:104040009DE0F7CF81E08093F20754CD1092F20704
:1040500051CD8AE090E0CCCF8AE090E09093EF02DF
:104060008093EE029093BF028093BE0290933E0233
:1040700080933D023FCD84E190E0F0CF8EE190E06F
:10408000EDCF88E290E0EACF82E390E0E7CF8CE3E7
:1040900090E0E4CF10920E0810920D0810920C08D8
:1040A00029CD10920B08F8CF81E080930E08109272
:1040B0000B0880910C0890910D08181619060CF049
:1040C00019CD91958195910990930D0880930C08D5
:1040D00011CD81E080930B0810920E0880910C089E
:1040E00090910D0897FF06CDECCF82E090E0ECCFE9
:1040F00084E090E0E9CF86E090E0E6CF88E090E0D1
:10410000E3CF8AE090E0E0CF84E190E0DDCF88E289
:1041100090E0DACF8CE390E0D7CF80E590E0D4CF89
:1041200084E690E0D1CF8091BE029091BF0290933F
:10413000EF028093EE028091C0029091C1029093B1
:10414000F1028093F0021092D1021092D0020E94EC
:10415000F20C10924D0710924E0710923B021092F3
:104160003A020E94890D1092F70710924C071092A4
:10417000F30710920D0810920C0810920B08109281
:104180000E08B8CC0E94A90EB5CC0E94EA12B2CC9F
:10419000AF92BF92CF92DF92EF92FF920F931F9355
:1041A000CF93DF93CDB7DEB762970FB6F894DEBF3B
:1041B0000FBECDBF6C017B015A010E94171264EC47
:1041C00074E0CE0101960E94741560E0CE01019664
:1041D0000E948B16CE0101960E945213B601CE01A9
:1041E00001960E94B91461E0CE0101960E948B16DF
:1041F000CE0101960E9452130E94FD0D10924F07AE
:10420000F70180819181F701329601E010E0219160
:1042100031912817390734F40F5F1F4FA016B106EC
:10422000B4F7F1CF68EE73E080E090E00E945706AB
:104230000E944C0E8091B30A81112FC08091B20A66
:10424000882311F00F5F1F4FA016B10614F401E090
:1042500010E061ED74E0CE0101960E94741562E0F9
:10426000CE0101960E948B16CE0101960E94521338
:10427000F801EE0FFF1FEE0DFF1D60817181CE0171
:1042800001960E94B31763E0CE0101960E948B163F
:10429000CE0101960E945213C5CF0E94171261ED04
:1042A00074E0CE0101960E94741560E0CE01019683
:1042B0000E948B16CE0101960E945213B601CE01C8
:1042C00001960E94B91461E0CE0101960E948B16FE
:1042D000CE0101960E945213000F111F0E0D1F1DDB
:1042E000F80160817181CE0107960E94B3176BEDD2
:1042F00074E0CE0101960E947415BE01695F7F4F84
:10430000CE0101960E94C413BC01CE010D960E94FD
:10431000B91462E0CE010D960E948B16CE010D9667
:104320000E945213CE0101960E945213CE010796AD
:104330000E94521368EE73E080E090E00E945706FE
:10434000F8018081918162960FB6F894DEBF0FBEAE
:10435000CDBFDF91CF911F910F91FF90EF90DF9034
:10436000CF90BF90AF9008950F931F93CF93DF939B
:10437000CDB7DEB72C970FB6F894DEBF0FBECDBF1A
:104380001A86198621E030E03C872B8718861F8229
:10439000BC01CE0101960E94B91442E050E0BE017A
:1043A000695F7F4FCE0101960E94C8208C01CE012B
:1043B00001960E945213C8012C960FB6F894DEBFE6
:1043C0000FBECDBFDF91CF911F910F9108954F92F6
:1043D0005F927F928F929F92AF92BF92CF92DF9225
:1043E000EF92FF920F931F93CF93DF93CDB7DEB77A
:1043F000C457D1090FB6F894DEBF0FBECDBF84EB12
:104400009CE00E94AC021092A00710929F071092AD
:10441000570B1092790B0E9495098BEB9AE09093C1
:10442000C3078093C2078CEB9AE09093C7078093F1
:10443000C60781E08093560B8FE38093780B0E9430
:10444000D409811102C01092380261E08DE30E940C
:10445000FC048DE390E090936507809364071092CD
:10446000970D809100008E010F5F1F4F803109F47E
:104470006DC0B80190E080E00E94F507882309F440
:1044800065C08D818F3309F461C08FE38D83809186
:104490009C0D90919D0D0E94BD0770E060E08091A1
:1044A0009C0D90919D0D0E949E0740E06EE48091CE
:1044B0009C0D90919D0D0E946A0740E06B81809158
:1044C0009C0D90919D0D0E946A0740E06C81809147
:1044D0009C0D90919D0D0E946A0780910000803193
:1044E00041F040E06D8180919C0D90919D0D0E9466
:1044F0006A0780919C0D90919D0D2091990D22232A
:1045000019F10E94BD07882309F140E06CEC80910D
:104510009C0D90919D0D0E946A074091930D68E457
:1045200080919C0D90919D0D0E946A078091930D42
:1045300081112EC064E170E080E090E00E94570697
:1045400080919C0D90919D0D0E94BD078AE0809303
:10455000960D80919A0D8230B0F1F12C80919A0DD8
:10456000F81688F58091960D8C3069F16F2DC80191
:104570000E94F30F8981803121F1C8010E94C30894
:104580009091960D981710F48093960DF394E6CFC2
:104590008091940D882329F060E08091950D0E9410
:1045A000CE0464E170E080E090E00E9457068091C4
:1045B000940D882329F261E08091950D0E94CE042C
:1045C000BFCF8CE0DDCF80913802882309F475C01D
:1045D00082E89DE00E94BA11E0919C0DF0919D0D42
:1045E0001386158614861286118610861782168207
:1045F00015821482138210929A0D10929B0DFF2443
:10460000F394B80180919C0D90919D0D0E94730FC1
:10461000882309F45EC067E0C8010E9400079885FE
:104620008913EFCF80919A0D8F5F80939A0D8981C6
:10463000883231F008F044C0803111F0823209F73D
:1046400080919B0D8F5F80939B0D8091930D8111C5
:1046500026C080919C0D90919D0D0E94BD07B801D0
:1046600080919C0D90919D0D0E949E0740E064EB0F
:1046700080919C0D90919D0D0E946A0780919C0DE8
:1046800090919D0D0E941707E82E80919C0D9091AE
:104690009D0D0E94BD07E11002C0F092930D89812B
:1046A0008031A9F0C8010E94C3089091960D981717
:1046B00008F0A7CF8093960DA4CF85E79DE08ACF21
:1046C0008B3309F4BDCF823409F09BCFB9CF8CE096
:1046D000ECCF0E94F20C0E9478126091E40270917B
:1046E000E5028091E6029091E7029B01AC010E94F5
:1046F000C24481110E94B2128091E4029091E502BD
:10470000A091E602B091E70280933F0290934002AD
:10471000A0934102B09342028093AE0A9093AF0AF5
:10472000A093B00AB093B10A81E08093390261E0AE
:1047300089E00E94FC0461E08AE00E94FC0461E0E0
:104740008EE30E94FC0461E08FE30E94FC0461E0C0
:1047500080E40E94FC0461E083E40E94FC0462E0C7
:1047600087E00E94FC0462E086E00E94FC0462E0B4
:1047700085E00E94FC0462E084E00E94FC0462E0A8
:1047800083E00E94FC0462E082E00E94FC0462E09C
:104790008DE00E94FC0462E08CE00E94FC0462E078
:1047A0008BE00E94FC0462E085E40E94FC0462E06D
:1047B00084E40E94FC0462E082E40E94FC0462E063
:1047C00083E40E94FC0462E081E40E94FC0462E055
:1047D00082E40E94FC040E9417121092B40A109204
:1047E0005B070E944C0E8091AD0A811110C280912E
:1047F000B20A882309F459C062EE74E0C8010E942D
:10480000741560E0C8010E948B16C8010E94521303
:1048100061EF74E0C8010E94741561E0C8010E9454
:104820008B16C8010E94521360E075E0C8010E9417
:10483000741562E0C8010E948B16C8010E945213D1
:1048400061E175E0C8010E94741543E060E0C801B1
:104850000E94C214C8010E94521365E0E62EF12C9A
:10486000DD24D394E114F10401F10E94FD0D0E94B6
:104870004C0E80914F078823A9F310924F07B70180
:10488000C8010E94131443E062E1C8010E94C214EF
:10489000C8010E94521381E0E81AF1088091AD0A24
:1048A000882301F3D0925B07DDCF8091B30A882380
:1048B00009F467C06AE175E0C8010E94741560E000
:1048C000C8010E948B16C8010E94521361EF74E068
:1048D000C8010E94741561E0C8010E948B16C801CE
:1048E0000E94521360E075E0C8010E94741562E0F6
:1048F000C8010E948B16C8010E94521361E175E045
:10490000C8010E94741543E060E0C8010E94C2140F
:10491000C8010E94521355E0E52EF12CDD24D394FA
:10492000E114F10471F10E94FD0D0E944C0E809182
:104930004F078823A9F310924F07B701C8010E94BF
:10494000131443E062E1C8010E94C214C8010E942E
:104950005213E1E0EE1AF1088091AD0A882301F3C9
:10496000D092B40A0E9417126AE175E0C8010E9451
:10497000741560E0C8010E948B16C8010E94521392
:10498000CFCF80915B07882309F441C10E941712A1
:1049900067E275E0C8010E94741560E0C8010E94DA
:1049A0008B16C8010E94521360ED77E080E090E022
:1049B0000E9457060E94781267E375E0C8010E94C2
:1049C000741566E475E0CE0107960E94741565E5DE
:1049D00075E0CE010D960E94741566E675E0CE0175
:1049E00043960E94741564E775E0CE0149960E94D3
:1049F000741566E875E0CE014F960E94741566E95D
:104A000075E0CE0185960E94741565EA75E0CE01C9
:104A10008B960E94741561EB75E0CE01C1960E94E1
:104A200074157E01F7E5EF0EF11CF7011686178667
:104A3000108A118A8091BE029091BF029183808377
:104A40008091C0029091C102938382838091CA02B7
:104A50009091CB02958384838091CC029091CD027A
:104A6000978386838091CE029091CF029187808731
:104A70008091D0029091D102938782878091E20247
:104A80009091E30295878487D12CC12C57010E9415
:104A900017120E944C0E8091B20A882329F0FFEF72
:104AA000CF1ADF0A0E94171289E0C816D10414F049
:104AB000D12CC12C86E08C9D40018D9D900C112441
:104AC000800E911EB401CE01C7960E94B91460E019
:104AD000CE01C7960E948B16CE01C7960E94521334
:104AE000F601EE0FFF1FEA0DFB1D60817181CE0103
:104AF000C7960E94B31762E0CE01C7960E948B163C
:104B0000CE01C7960E94521368EE73E080E090E0F9
:104B10000E9457060E944C0E7090B30A772009F449
:104B2000B6CFF6013197E830F10570F48827E456E6
:104B3000FA4D8F4F0C948547BE2A0D2B622BB72B55
:104B4000062C5B2CE42CFB2C4090BE025090BF0244
:104B5000B401CE0181599F4F0E94B9148AE090E0C0
:104B60009AAF89AF84E190E09CAF8BAF8EE190E08B
:104B70009EAF8DAF88E290E021969FAF8EAF2197D8
:104B800082E390E023969FAF8EAF239758AE4FAA53
:104B9000BE0161597F4FCE0187599F4F0E94B914C2
:104BA00045E050E0BE01695C7F4FCE0187599F4FC1
:104BB0000E94C8204C01CE0187599F4F0E9452137A
:104BC0009092BF028092BE02CE0181599F4F0E94F7
:104BD00052138091BE029091BF02F50191838083B0
:104BE00068EE73E080E090E00E94570671104FCFAE
:104BF0007E01E7E3EE0EF11CF6E0EF1AF108C701C3
:104C00000E9452130E151F05B9F710925B070E9400
:104C1000171262EC75E0CE01895A9F4F0E947415FD
:104C200066EC75E0C8010E947415BE01695A7F4F99
:104C3000C8010E94C413BC01CE01C7960E94B914DA
:104C4000C8010E945213BE01695C7F4FC8010E94D7
:104C5000B91460E0C8010E948B16C8010E9452136B
:104C600060ED75E0C8010E94741562E0C8010E9401
:104C70008B16C8010E9452136CED75E0C8010E94AA
:104C8000741563E0C8010E948B16C8010E9452137C
:104C900068EE73E080E090E00E9457060E941712D1
:104CA000CE01C7960E945213CE01895A9F4F0E948F
:104CB00052131092090B61E081E10E94FC0460E054
:104CC00081E10E94CE0468EE73E080E090E00E94F3
:104CD000570660E081E10E94FC0481E10E94A50486
:104CE000FF24F394009709F4F12CF0926307892BC9
:104CF00019F081E08093090B6DEE75E0C8010E9408
:104D000074156F2D70E0C8010E941A16C8010E9428
:104D1000521387E19CE00E94AC0261E08FE00E94A8
:104D2000FC0460E08FE00E94CE0464EF71E080E05C
:104D300090E00E94570660E08FE00E94FC048FE044
:104D40000E94A504FF24F394892B09F4F12CF0921E
:104D5000080B64EF75E0C8010E9474156F2D70E0B8
:104D6000C8010E941A16C8010E9452138091080BB4
:104D7000882321F08AE79BE00E94AC02FFB6F894FA
:104D800080915C07811127C0E7E9F4E08491EDEDA3
:104D9000F4E09491E82FF0E0EE0FFF1FE253FC4F98
:104DA000A591B491EC91E92321F461E085E30E949F
:104DB000CE0461E085E30E94FC048CB580618CBD6B
:104DC0008CB580648CBD61E084E30E94FC0461E0EA
:104DD00083E30E94FC0480915C078F5F80935C07F3
:104DE000FFBE80917A00887F80937A0080917A005C
:104DF000856080937A0080917E00816080937E0040
:104E000080917E00826080937E0080917E0084602D
:104E100080937E0080917E00806180937E008091EF
:104E20007E00806280937E0060E089E00E94CE0474
:104E300061E08EE30E94CE0461E08FE30E94CE0425
:104E400061E080E40E94CE0470E060E089E00E94AE
:104E5000380560E082E29BE00E94F30F0E94ED08BB
:104E60008091380240E352E060E0882309F4DCC519
:104E700082E89DE00E94281248E252E061E082E868
:104E80009DE00E94281240E252E062E082E89DE04C
:104E90000E94281248E152E063E082E89DE00E940F
:104EA000281240E152E064E082E89DE00E9428126E
:104EB00048E052E065E082E89DE00E94281240E070
:104EC00052E066E082E89DE00E94281287E00E949E
:104ED000A5047C0181E0E114F10409F080E08093F5
:104EE000620786E00E94A5046C0181E0C114D10430
:104EF00009F080E08093F20785E00E94A5045C0140
:104F000081E0A114B10409F080E08093F60784E009
:104F10000E94A5044C0181E08114910409F080E015
:104F20008093610783E00E94A50477247394892B02
:104F300009F0712C7092600782E00E94A50455244C
:104F40005394892B09F0512C50925F078DE00E94F9
:104F5000A504892B19F581E08093B50A88EE93E0CA
:104F600090935E0780935D078CE00E94A504892BD7
:104F700031F48CED95E090935E0780935D078BE0B4
:104F80000E94A504892B51F480915D0790915E07E2
:104F900088519C4F90935E0780935D0761E08AE0A3
:104FA0000E94FC0461E088E00E94FC0470E060E084
:104FB0008AE00E94380570E060E088E00E943805D1
:104FC0001092B30A1092B20A0E944C0E892851F432
:104FD0008EE490E09093F1028093F0029093C102EE
:104FE0008093C002852D90E0880F991F870D911D39
:104FF0008230910509F448C58330910509F447C50D
:10500000019709F43EC588E290E090933E028093B8
:105010003D0280913D0290913E029093EF02809379
:10502000EE029093BF028093BE02E114F10409F0F6
:1050300031C583E090E090933B0280933A029090D8
:105040006307992019F081E08093090B0E941712E1
:1050500062EC75E0CE0181599F4F0E94741566EC99
:1050600075E0C8010E947415BE0161597F4FC801E7
:105070000E94C413BC01CE0187599F4F0E94B914EE
:10508000C8010E945213EF2839F46BEF75E0CE018E
:1050900087599F4F0E94D713AB2839F46FE075E012
:1050A000CE0187599F4F0E94D713CD2839F46DEF59
:1050B00075E0CE0187599F4F0E94D713992039F090
:1050C00061EF76E0CE0187599F4F0E94D713809100
:1050D000080B882339F069EF76E0CE0187599F4F9E
:1050E0000E94D7138091B50A882339F06FEF75E0DD
:1050F000CE0187599F4F0E94D713BE0167597F4F3A
:10510000CE0101960E94B914CE0101960E945E1A4A
:10511000CE0101960E9452138091F607882341F038
:1051200061E08AE00E94FC0460E08AE00E94CE0414
:10513000BE0167597F4FCE0101960E94B91460E00D
:10514000CE0101960E948B16CE0101960E94521349
:1051500080916207882379F061E076E0CE010196C4
:105160000E94741561E0CE0101960E948B16CE015B
:1051700001960E9452138091F607882379F063E12B
:1051800076E0CE0101960E94741562E0CE01019690
:105190000E948B16CE0101960E9452136091F0027C
:1051A0007091F102CE0101960E9413146091EE02FB
:1051B0007091EF02CE01C7960E94131466E276E06A
:1051C000CE01895A9F4F0E947415BE01695C7F4FC2
:1051D000CE01895A9F4F0E94C4136DE276E00E946F
:1051E000AE13BE016F5F7F4F0E94C41366E376E08B
:1051F0000E94AE13BC01CE0187599F4F0E94A2149A
:10520000CE01895A9F4F0E945213CE01C7960E9429
:105210005213CE0101960E945213BE0167597F4F6F
:10522000CE0101960E94B91462E0CE0101960E945F
:105230008B16CE0101960E94521368E376E0CE01F0
:1052400001960E94741543E060E0CE0101960E9431
:10525000C214CE0101960E94521360913F027091D8
:105260004002809141029091420204E023E04CE030
:105270000E94851580910E08882309F410C460EC03
:1052800072E1CE01C7960E94131466E476E0CE0167
:10529000895A9F4F0E947415BE01695C7F4FCE01F1
:1052A000895A9F4F0E94C4136DEF75E00E94AE13A0
:1052B000BC01CE0101960E94B91463E0CE010196B3
:1052C0000E948B16CE0101960E945213CE01895A7C
:1052D0009F4F0E945213CE01C7960E94521380E640
:1052E00090E090930D0880930C0868E873E180E0EB
:1052F00090E00E945706CE0187599F4F0E9452139B
:10530000CE0181599F4F0E9452131092D1021092E8
:10531000D0020E94171264E576E0CE0101960E9449
:10532000741561E0CE0101960E948B16CE010196A4
:105330000E9452130E94CD0C0197909344028093D7
:10534000430210E086E0E82EF12C8090E802909075
:10535000E902A090EA02B090EB0220E030E042EBDC
:1053600052E4C501B4010E946C47181654F020E0C5
:1053700030E040E251ECC501B4010E94C24487FF15
:105380007EC060E082E29BE00E94F30F0E9467080B
:105390006093E8027093E9028093EA029093EB0233
:1053A00064E670E080E090E00E9457060E94ED08FD
:1053B00081E0E81AF10849F668E175E0CE0101964E
:1053C0000E94741542E0612FCE0101960E94C21422
:1053D000CE0101960E9452131F5F143109F0B2CF23
:1053E00064E676E0CE0101960E947415CE01019626
:1053F0000E945E1ACE0101960E9452130E9417125B
:1054000062E776E0CE0101960E94741561E0CE015C
:1054100001960E948B16CE0101960E94521364E8F9
:1054200076E0CE0101960E94741562E0CE010196ED
:105430000E948B16CE0101960E94521360ED77E018
:1054400080E090E00E94570620E030E04EEF52EC02
:105450006091E8027091E9028091EA029091EB027A
:105460000E94C24481116DCF1092E8021092E902AD
:105470001092EA021092EB0281E080934B080E94A6
:10548000171220E030E048EC52E46091E80270919D
:10549000E9028091EA029091EB020E9428450E9465
:1054A00036479B01685E734069357B4110F020EA06
:1054B0003FE0E0E5F8E088EA9AE0219331938E1727
:1054C0009F07D9F78091EE029091EF029093C90265
:1054D0008093C8020E942A108091B50A81110E940F
:1054E000840E20913F023091400240914102509140
:1054F000420260E070E080E89FE30E94C44660934F
:10550000F10A7093F20A8093F30A9093F40A0E94CE
:10551000ED080E9467086B017C0120E030E040E26A
:1055200051EC0E94C24487FDBFC2C092E802D092F3
:10553000E902E092EA02F092EB020E948A0660938E
:10554000000B7093010B8093020B9093030BCC58CC
:10555000DF4F0FB6F894DEBF0FBECDBFDF91CF9106
:105560001F910F91FF90EF90DF90CF90BF90AF9081
:105570009F908F907F905F904F9008958090C00291
:105580009090C102BE01695F7F4FCE0181599F4F4C
:105590000E94B91484E490E09AAF89AF89E490E066
:1055A0009CAF8BAF8EE490E09EAF8DAF83E590E033
:1055B00021969FAF8EAF219788E590E023969FAF0D
:1055C0008EAF239798AE8FAABE0161597F4FCE014F
:1055D00087599F4F0E94B91445E050E0BE01695CB5
:1055E0007F4FCE0187599F4F0E94C8204C01CE01AA
:1055F00087599F4F0E9452139092C1028092C0021D
:10560000CE0181599F4F0E9452138091C002909108
:10561000C102F70193838283E3CA8090CA0290900B
:10562000CB02BE01635F7F4FCE0181599F4F0E9425
:10563000B91480ED97E09AAF89AF84EC99E09CAF04
:105640008BAF88EB9BE09EAF8DAF8CEA9DE02196FF
:105650009FAF8EAF219780EA9FE023969FAF8EAFDA
:10566000239784E991E125969FAF8EAF259798AE59
:105670008FAABE0161597F4FCE0187599F4F0E946B
:10568000B91446E050E0BE01695C7F4FCE018759F6
:105690009F4F0E94C8204C01CE0187599F4F0E9406
:1056A00052139092CB028092CA02CE0181599F4F31
:1056B0000E9452138091CA029091CB02F701958308
:1056C00084838ECA8090CC029090CD02BE016D5E24
:1056D0007F4FCE0181599F4F0E94B91484EB90E017
:1056E0009AAF89AF8AEF90E09CAF8BAF8CE291E0EC
:1056F0009EAF8DAF8EE591E021969FAF8EAF219743
:1057000080E991E023969FAF8EAF239782EC91E0E2
:1057100025969FAF8EAF259798AE8FAABE0161598F
:105720007F4FCE0187599F4F0E94B91446E050E049
:10573000BE01695C7F4FCE0187599F4F0E94C820F0
:105740004C01CE0187599F4F0E9452139092CD0277
:105750008092CC02CE0181599F4F0E9452138091BA
:10576000CC029091CD02F7019783868339CA80904D
:10577000CE029090CF02BE01675E7F4FCE0181596D
:105780009F4F0E94B91484EF91E09AAF89AF88EEE1
:1057900093E09CAF8BAF8CED95E09EAF8DAF80ED2D
:1057A00097E021969FAF8EAF219784EC99E02396E6
:1057B0009FAF8EAF239798AE8FAABE0161597F4FDE
:1057C000CE0187599F4F0E94B91445E050E0BE01B9
:1057D000695C7F4FCE0187599F4F0E94C8204C01C2
:1057E000CE0187599F4F0E9452139092CF02809210
:1057F000CE02CE0181599F4F0E9452138091CE025A
:105800009091CF02F70191878087EAC98090D002FA
:105810009090D102BE01615E7F4FCE0181599F4FB2
:105820000E94B91484EF91E09AAF89AF88EE93E0BB
:105830009CAF8BAF80ED97E09EAF8DAF88EB9BE088
:1058400021969FAF8EAF219780EA9FE023969FAF6E
:105850008EAF239788E893E125969FAF8EAF25976B
:1058600098AE8FAABE0161597F4FCE0187599F4FD5
:105870000E94B91446E050E0BE01695C7F4FCE0142
:1058800087599F4F0E94C8204C01CE0187599F4FD6
:105890000E9452139092D1028092D002CE0181597F
:1058A0009F4F0E9452138091D0029091D102F70134
:1058B0009387828795C98090E2029090E302BE01AF
:1058C0006B5D7F4FCE0181599F4F0E94B9141AAE74
:1058D00019AE85E090E09CAF8BAF8AE090E09EAF80
:1058E0008DAF8FE090E021969FAF8EAF219784E13E
:1058F00090E023969FAF8EAF239789E190E02596A5
:105900009FAF8EAF25978EE190E027969FAF8EAF29
:10591000279783E290E029969FAF8EAF299788E280
:1059200090E02B969FAF8EAF2B978DE290E02D9657
:105930009FAF8EAF2D9782E390E02F969FAF8EAFF3
:105940002F9787E390E061969FAF8EAF61978CE3CE
:1059500090E063969FAF8EAF639781E490E0659689
:105960009FAF8EAF659784E690E067969FAF8EAF4E
:10597000679798AE8FAABE0161597F4FCE018759B4
:105980009F4F0E94B9144FE050E0BE01695C7F4F09
:10599000CE0187599F4F0E94C8204C01CE018759E4
:1059A0009F4F0E9452139092E3028092E202CE0136
:1059B00081599F4F0E9452138091E2029091E3021D
:1059C000F701958784870CC9BE01655D7F4FCE01C5
:1059D000C7960E94B914CE01C7960E94B4214C010B
:1059E000CE01C7960E9452138A94892811F40E940E
:1059F0005712712CF5C8BE016F5C7F4FCE01C79660
:105A00000E94B914CE01C7960E94B4214C01CE0168
:105A1000C7960E9452138A94892809F0E1C80E940F
:105A2000B2120E94EA12DCC885E79DE00E942812AB
:105A300048E252E061E085E79DE00E94281240E2E2
:105A400052E062E085E79DE00E94281248E152E0C2
:105A500063E085E79DE00E94281240E152E064E0A7
:105A600085E79DE00E94281248E052E065E085E766
:105A70009DE00E94281240E052E066E085E79DE04C
:105A800023CA82E390E0C1CA8EE190E0BECA8AE0F8
:105A900090E0BBCA10923B0210923A02D0CA109218
:105AA0000D0810920C0821CC1092E8021092E90225
:105AB0001092EA021092EB0240CD85ED8093BC007B
:105AC0008091520B9091530BA091540BB091550BB8
:105AD0000796A11DB11D23E0B695A79597958795CB
